{
	"contracts/SimpleStorage.sol": {
		"SimpleStorage": {
			"abi": [
				{
					"inputs": [
						{
							"internalType": "uint256",
							"name": "_favoriteNumber",
							"type": "uint256"
						},
						{
							"internalType": "string",
							"name": "_name",
							"type": "string"
						}
					],
					"name": "addPeople",
					"outputs": [],
					"stateMutability": "nonpayable",
					"type": "function"
				},
				{
					"inputs": [],
					"name": "favoriteNumber",
					"outputs": [
						{
							"internalType": "uint256",
							"name": "",
							"type": "uint256"
						}
					],
					"stateMutability": "view",
					"type": "function"
				},
				{
					"inputs": [
						{
							"internalType": "string",
							"name": "",
							"type": "string"
						}
					],
					"name": "nameToFavoriteNumber",
					"outputs": [
						{
							"internalType": "uint256",
							"name": "",
							"type": "uint256"
						}
					],
					"stateMutability": "view",
					"type": "function"
				},
				{
					"inputs": [
						{
							"internalType": "uint256",
							"name": "",
							"type": "uint256"
						}
					],
					"name": "people",
					"outputs": [
						{
							"internalType": "uint256",
							"name": "favoriteNumber",
							"type": "uint256"
						},
						{
							"internalType": "string",
							"name": "name",
							"type": "string"
						}
					],
					"stateMutability": "view",
					"type": "function"
				},
				{
					"inputs": [],
					"name": "retrieve",
					"outputs": [
						{
							"internalType": "uint256",
							"name": "",
							"type": "uint256"
						}
					],
					"stateMutability": "view",
					"type": "function"
				},
				{
					"inputs": [
						{
							"internalType": "uint256",
							"name": "_favoriteNumber",
							"type": "uint256"
						}
					],
					"name": "store",
					"outputs": [],
					"stateMutability": "nonpayable",
					"type": "function"
				}
			],
			"devdoc": {
				"kind": "dev",
				"methods": {},
				"version": 1
			},
			"evm": {
				"assembly": "    /* \"contracts/SimpleStorage.sol\":57:856  contract SimpleStorage {... */\n  mstore(0x40, 0x80)\n  callvalue\n  dup1\n  iszero\n  tag_1\n  jumpi\n  0x00\n  dup1\n  revert\ntag_1:\n  pop\n  dataSize(sub_0)\n  dup1\n  dataOffset(sub_0)\n  0x00\n  codecopy\n  0x00\n  return\nstop\n\nsub_0: assembly {\n        /* \"contracts/SimpleStorage.sol\":57:856  contract SimpleStorage {... */\n      mstore(0x40, 0x80)\n      callvalue\n      dup1\n      iszero\n      tag_1\n      jumpi\n      0x00\n      dup1\n      revert\n    tag_1:\n      pop\n      jumpi(tag_2, lt(calldatasize, 0x04))\n      shr(0xe0, calldataload(0x00))\n      dup1\n      0x2e64cec1\n      eq\n      tag_3\n      jumpi\n      dup1\n      0x471f7cdf\n      eq\n      tag_4\n      jumpi\n      dup1\n      0x6057361d\n      eq\n      tag_5\n      jumpi\n      dup1\n      0x8bab8dd5\n      eq\n      tag_6\n      jumpi\n      dup1\n      0x8f7d59b8\n      eq\n      tag_7\n      jumpi\n      dup1\n      0x9e7a13ad\n      eq\n      tag_8\n      jumpi\n    tag_2:\n      0x00\n      dup1\n      revert\n        /* \"contracts/SimpleStorage.sol\":413:500  function retrieve() public view returns(uint256) {... */\n    tag_3:\n      tag_9\n      tag_10\n      jump\t// in\n    tag_9:\n      mload(0x40)\n      tag_11\n      swap2\n      swap1\n      tag_12\n      jump\t// in\n    tag_11:\n      mload(0x40)\n      dup1\n      swap2\n      sub\n      swap1\n      return\n        /* \"contracts/SimpleStorage.sol\":86:115  uint256 public favoriteNumber */\n    tag_4:\n      tag_13\n      tag_14\n      jump\t// in\n    tag_13:\n      mload(0x40)\n      tag_15\n      swap2\n      swap1\n      tag_12\n      jump\t// in\n    tag_15:\n      mload(0x40)\n      dup1\n      swap2\n      sub\n      swap1\n      return\n        /* \"contracts/SimpleStorage.sol\":295:390  function store(uint256 _favoriteNumber) public{... */\n    tag_5:\n      tag_16\n      0x04\n      dup1\n      calldatasize\n      sub\n      dup2\n      add\n      swap1\n      tag_17\n      swap2\n      swap1\n      tag_18\n      jump\t// in\n    tag_17:\n      tag_19\n      jump\t// in\n    tag_16:\n      stop\n        /* \"contracts/SimpleStorage.sol\":234:288  mapping(string => uint256) public nameToFavoriteNumber */\n    tag_6:\n      tag_20\n      0x04\n      dup1\n      calldatasize\n      sub\n      dup2\n      add\n      swap1\n      tag_21\n      swap2\n      swap1\n      tag_22\n      jump\t// in\n    tag_21:\n      tag_23\n      jump\t// in\n    tag_20:\n      mload(0x40)\n      tag_24\n      swap2\n      swap1\n      tag_12\n      jump\t// in\n    tag_24:\n      mload(0x40)\n      dup1\n      swap2\n      sub\n      swap1\n      return\n        /* \"contracts/SimpleStorage.sol\":664:851  function addPeople(uint256 _favoriteNumber, string memory _name) public {... */\n    tag_7:\n      tag_25\n      0x04\n      dup1\n      calldatasize\n      sub\n      dup2\n      add\n      swap1\n      tag_26\n      swap2\n      swap1\n      tag_27\n      jump\t// in\n    tag_26:\n      tag_28\n      jump\t// in\n    tag_25:\n      stop\n        /* \"contracts/SimpleStorage.sol\":206:228  People[] public people */\n    tag_8:\n      tag_29\n      0x04\n      dup1\n      calldatasize\n      sub\n      dup2\n      add\n      swap1\n      tag_30\n      swap2\n      swap1\n      tag_18\n      jump\t// in\n    tag_30:\n      tag_31\n      jump\t// in\n    tag_29:\n      mload(0x40)\n      tag_32\n      swap3\n      swap2\n      swap1\n      tag_33\n      jump\t// in\n    tag_32:\n      mload(0x40)\n      dup1\n      swap2\n      sub\n      swap1\n      return\n        /* \"contracts/SimpleStorage.sol\":413:500  function retrieve() public view returns(uint256) {... */\n    tag_10:\n        /* \"contracts/SimpleStorage.sol\":453:460  uint256 */\n      0x00\n        /* \"contracts/SimpleStorage.sol\":479:493  favoriteNumber */\n      dup1\n      sload\n        /* \"contracts/SimpleStorage.sol\":472:493  return favoriteNumber */\n      swap1\n      pop\n        /* \"contracts/SimpleStorage.sol\":413:500  function retrieve() public view returns(uint256) {... */\n      swap1\n      jump\t// out\n        /* \"contracts/SimpleStorage.sol\":86:115  uint256 public favoriteNumber */\n    tag_14:\n      sload(0x00)\n      dup2\n      jump\t// out\n        /* \"contracts/SimpleStorage.sol\":295:390  function store(uint256 _favoriteNumber) public{... */\n    tag_19:\n        /* \"contracts/SimpleStorage.sol\":368:383  _favoriteNumber */\n      dup1\n        /* \"contracts/SimpleStorage.sol\":351:365  favoriteNumber */\n      0x00\n        /* \"contracts/SimpleStorage.sol\":351:383  favoriteNumber = _favoriteNumber */\n      dup2\n      swap1\n      sstore\n      pop\n        /* \"contracts/SimpleStorage.sol\":295:390  function store(uint256 _favoriteNumber) public{... */\n      pop\n      jump\t// out\n        /* \"contracts/SimpleStorage.sol\":234:288  mapping(string => uint256) public nameToFavoriteNumber */\n    tag_23:\n      0x02\n      dup2\n      dup1\n      mload\n      0x20\n      dup2\n      add\n      dup3\n      add\n      dup1\n      mload\n      dup5\n      dup3\n      mstore\n      0x20\n      dup4\n      add\n      0x20\n      dup6\n      add\n      keccak256\n      dup2\n      dup4\n      mstore\n      dup1\n      swap6\n      pop\n      pop\n      pop\n      pop\n      pop\n      pop\n      0x00\n      swap2\n      pop\n      swap1\n      pop\n      sload\n      dup2\n      jump\t// out\n        /* \"contracts/SimpleStorage.sol\":664:851  function addPeople(uint256 _favoriteNumber, string memory _name) public {... */\n    tag_28:\n        /* \"contracts/SimpleStorage.sol\":746:752  people */\n      0x01\n        /* \"contracts/SimpleStorage.sol\":758:788  People(_favoriteNumber, _name) */\n      mload(0x40)\n      dup1\n      0x40\n      add\n      0x40\n      mstore\n      dup1\n        /* \"contracts/SimpleStorage.sol\":765:780  _favoriteNumber */\n      dup5\n        /* \"contracts/SimpleStorage.sol\":758:788  People(_favoriteNumber, _name) */\n      dup2\n      mstore\n      0x20\n      add\n        /* \"contracts/SimpleStorage.sol\":782:787  _name */\n      dup4\n        /* \"contracts/SimpleStorage.sol\":758:788  People(_favoriteNumber, _name) */\n      dup2\n      mstore\n      pop\n        /* \"contracts/SimpleStorage.sol\":746:789  people.push(People(_favoriteNumber, _name)) */\n      swap1\n      dup1\n      0x01\n      dup2\n      sload\n      add\n      dup1\n      dup3\n      sstore\n      dup1\n      swap2\n      pop\n      pop\n      0x01\n      swap1\n      sub\n      swap1\n      0x00\n      mstore\n      keccak256(0x00, 0x20)\n      swap1\n      0x02\n      mul\n      add\n      0x00\n      swap1\n      swap2\n      swap1\n      swap2\n      swap1\n      swap2\n      pop\n      0x00\n      dup3\n      add\n      mload\n      dup2\n      0x00\n      add\n      sstore\n      0x20\n      dup3\n      add\n      mload\n      dup2\n      0x01\n      add\n      swap1\n      dup2\n      tag_38\n      swap2\n      swap1\n      tag_39\n      jump\t// in\n    tag_38:\n      pop\n      pop\n      pop\n        /* \"contracts/SimpleStorage.sol\":829:844  _favoriteNumber */\n      dup2\n        /* \"contracts/SimpleStorage.sol\":799:819  nameToFavoriteNumber */\n      0x02\n        /* \"contracts/SimpleStorage.sol\":820:825  _name */\n      dup3\n        /* \"contracts/SimpleStorage.sol\":799:826  nameToFavoriteNumber[_name] */\n      mload(0x40)\n      tag_40\n      swap2\n      swap1\n      tag_41\n      jump\t// in\n    tag_40:\n      swap1\n      dup2\n      mstore\n      0x20\n      add\n      mload(0x40)\n      dup1\n      swap2\n      sub\n      swap1\n      keccak256\n        /* \"contracts/SimpleStorage.sol\":799:844  nameToFavoriteNumber[_name] = _favoriteNumber */\n      dup2\n      swap1\n      sstore\n      pop\n        /* \"contracts/SimpleStorage.sol\":664:851  function addPeople(uint256 _favoriteNumber, string memory _name) public {... */\n      pop\n      pop\n      jump\t// out\n        /* \"contracts/SimpleStorage.sol\":206:228  People[] public people */\n    tag_31:\n      0x01\n      dup2\n      dup2\n      sload\n      dup2\n      lt\n      tag_42\n      jumpi\n      0x00\n      dup1\n      revert\n    tag_42:\n      swap1\n      0x00\n      mstore\n      keccak256(0x00, 0x20)\n      swap1\n      0x02\n      mul\n      add\n      0x00\n      swap2\n      pop\n      swap1\n      pop\n      dup1\n      0x00\n      add\n      sload\n      swap1\n      dup1\n      0x01\n      add\n      dup1\n      sload\n      tag_44\n      swap1\n      tag_45\n      jump\t// in\n    tag_44:\n      dup1\n      0x1f\n      add\n      0x20\n      dup1\n      swap2\n      div\n      mul\n      0x20\n      add\n      mload(0x40)\n      swap1\n      dup2\n      add\n      0x40\n      mstore\n      dup1\n      swap3\n      swap2\n      swap1\n      dup2\n      dup2\n      mstore\n      0x20\n      add\n      dup3\n      dup1\n      sload\n      tag_46\n      swap1\n      tag_45\n      jump\t// in\n    tag_46:\n      dup1\n      iszero\n      tag_47\n      jumpi\n      dup1\n      0x1f\n      lt\n      tag_48\n      jumpi\n      0x0100\n      dup1\n      dup4\n      sload\n      div\n      mul\n      dup4\n      mstore\n      swap2\n      0x20\n      add\n      swap2\n      jump(tag_47)\n    tag_48:\n      dup3\n      add\n      swap2\n      swap1\n      0x00\n      mstore\n      keccak256(0x00, 0x20)\n      swap1\n    tag_49:\n      dup2\n      sload\n      dup2\n      mstore\n      swap1\n      0x01\n      add\n      swap1\n      0x20\n      add\n      dup1\n      dup4\n      gt\n      tag_49\n      jumpi\n      dup3\n      swap1\n      sub\n      0x1f\n      and\n      dup3\n      add\n      swap2\n    tag_47:\n      pop\n      pop\n      pop\n      pop\n      pop\n      swap1\n      pop\n      dup3\n      jump\t// out\n        /* \"#utility.yul\":7:84   */\n    tag_50:\n        /* \"#utility.yul\":44:51   */\n      0x00\n        /* \"#utility.yul\":73:78   */\n      dup2\n        /* \"#utility.yul\":62:78   */\n      swap1\n      pop\n        /* \"#utility.yul\":7:84   */\n      swap2\n      swap1\n      pop\n      jump\t// out\n        /* \"#utility.yul\":90:208   */\n    tag_51:\n        /* \"#utility.yul\":177:201   */\n      tag_92\n        /* \"#utility.yul\":195:200   */\n      dup2\n        /* \"#utility.yul\":177:201   */\n      tag_50\n      jump\t// in\n    tag_92:\n        /* \"#utility.yul\":172:175   */\n      dup3\n        /* \"#utility.yul\":165:202   */\n      mstore\n        /* \"#utility.yul\":90:208   */\n      pop\n      pop\n      jump\t// out\n        /* \"#utility.yul\":214:436   */\n    tag_12:\n        /* \"#utility.yul\":307:311   */\n      0x00\n        /* \"#utility.yul\":345:347   */\n      0x20\n        /* \"#utility.yul\":334:343   */\n      dup3\n        /* \"#utility.yul\":330:348   */\n      add\n        /* \"#utility.yul\":322:348   */\n      swap1\n      pop\n        /* \"#utility.yul\":358:429   */\n      tag_94\n        /* \"#utility.yul\":426:427   */\n      0x00\n        /* \"#utility.yul\":415:424   */\n      dup4\n        /* \"#utility.yul\":411:428   */\n      add\n        /* \"#utility.yul\":402:408   */\n      dup5\n        /* \"#utility.yul\":358:429   */\n      tag_51\n      jump\t// in\n    tag_94:\n        /* \"#utility.yul\":214:436   */\n      swap3\n      swap2\n      pop\n      pop\n      jump\t// out\n        /* \"#utility.yul\":442:517   */\n    tag_52:\n        /* \"#utility.yul\":475:481   */\n      0x00\n        /* \"#utility.yul\":508:510   */\n      0x40\n        /* \"#utility.yul\":502:511   */\n      mload\n        /* \"#utility.yul\":492:511   */\n      swap1\n      pop\n        /* \"#utility.yul\":442:517   */\n      swap1\n      jump\t// out\n        /* \"#utility.yul\":523:640   */\n    tag_53:\n        /* \"#utility.yul\":632:633   */\n      0x00\n        /* \"#utility.yul\":629:630   */\n      dup1\n        /* \"#utility.yul\":622:634   */\n      revert\n        /* \"#utility.yul\":646:763   */\n    tag_54:\n        /* \"#utility.yul\":755:756   */\n      0x00\n        /* \"#utility.yul\":752:753   */\n      dup1\n        /* \"#utility.yul\":745:757   */\n      revert\n        /* \"#utility.yul\":769:891   */\n    tag_55:\n        /* \"#utility.yul\":842:866   */\n      tag_99\n        /* \"#utility.yul\":860:865   */\n      dup2\n        /* \"#utility.yul\":842:866   */\n      tag_50\n      jump\t// in\n    tag_99:\n        /* \"#utility.yul\":835:840   */\n      dup2\n        /* \"#utility.yul\":832:867   */\n      eq\n        /* \"#utility.yul\":822:885   */\n      tag_100\n      jumpi\n        /* \"#utility.yul\":881:882   */\n      0x00\n        /* \"#utility.yul\":878:879   */\n      dup1\n        /* \"#utility.yul\":871:883   */\n      revert\n        /* \"#utility.yul\":822:885   */\n    tag_100:\n        /* \"#utility.yul\":769:891   */\n      pop\n      jump\t// out\n        /* \"#utility.yul\":897:1036   */\n    tag_56:\n        /* \"#utility.yul\":943:948   */\n      0x00\n        /* \"#utility.yul\":981:987   */\n      dup2\n        /* \"#utility.yul\":968:988   */\n      calldataload\n        /* \"#utility.yul\":959:988   */\n      swap1\n      pop\n        /* \"#utility.yul\":997:1030   */\n      tag_102\n        /* \"#utility.yul\":1024:1029   */\n      dup2\n        /* \"#utility.yul\":997:1030   */\n      tag_55\n      jump\t// in\n    tag_102:\n        /* \"#utility.yul\":897:1036   */\n      swap3\n      swap2\n      pop\n      pop\n      jump\t// out\n        /* \"#utility.yul\":1042:1371   */\n    tag_18:\n        /* \"#utility.yul\":1101:1107   */\n      0x00\n        /* \"#utility.yul\":1150:1152   */\n      0x20\n        /* \"#utility.yul\":1138:1147   */\n      dup3\n        /* \"#utility.yul\":1129:1136   */\n      dup5\n        /* \"#utility.yul\":1125:1148   */\n      sub\n        /* \"#utility.yul\":1121:1153   */\n      slt\n        /* \"#utility.yul\":1118:1237   */\n      iszero\n      tag_104\n      jumpi\n        /* \"#utility.yul\":1156:1235   */\n      tag_105\n      tag_53\n      jump\t// in\n    tag_105:\n        /* \"#utility.yul\":1118:1237   */\n    tag_104:\n        /* \"#utility.yul\":1276:1277   */\n      0x00\n        /* \"#utility.yul\":1301:1354   */\n      tag_106\n        /* \"#utility.yul\":1346:1353   */\n      dup5\n        /* \"#utility.yul\":1337:1343   */\n      dup3\n        /* \"#utility.yul\":1326:1335   */\n      dup6\n        /* \"#utility.yul\":1322:1344   */\n      add\n        /* \"#utility.yul\":1301:1354   */\n      tag_56\n      jump\t// in\n    tag_106:\n        /* \"#utility.yul\":1291:1354   */\n      swap2\n      pop\n        /* \"#utility.yul\":1247:1364   */\n      pop\n        /* \"#utility.yul\":1042:1371   */\n      swap3\n      swap2\n      pop\n      pop\n      jump\t// out\n        /* \"#utility.yul\":1377:1494   */\n    tag_57:\n        /* \"#utility.yul\":1486:1487   */\n      0x00\n        /* \"#utility.yul\":1483:1484   */\n      dup1\n        /* \"#utility.yul\":1476:1488   */\n      revert\n        /* \"#utility.yul\":1500:1617   */\n    tag_58:\n        /* \"#utility.yul\":1609:1610   */\n      0x00\n        /* \"#utility.yul\":1606:1607   */\n      dup1\n        /* \"#utility.yul\":1599:1611   */\n      revert\n        /* \"#utility.yul\":1623:1725   */\n    tag_59:\n        /* \"#utility.yul\":1664:1670   */\n      0x00\n        /* \"#utility.yul\":1715:1717   */\n      0x1f\n        /* \"#utility.yul\":1711:1718   */\n      not\n        /* \"#utility.yul\":1706:1708   */\n      0x1f\n        /* \"#utility.yul\":1699:1704   */\n      dup4\n        /* \"#utility.yul\":1695:1709   */\n      add\n        /* \"#utility.yul\":1691:1719   */\n      and\n        /* \"#utility.yul\":1681:1719   */\n      swap1\n      pop\n        /* \"#utility.yul\":1623:1725   */\n      swap2\n      swap1\n      pop\n      jump\t// out\n        /* \"#utility.yul\":1731:1911   */\n    tag_60:\n        /* \"#utility.yul\":1779:1856   */\n      0x4e487b7100000000000000000000000000000000000000000000000000000000\n        /* \"#utility.yul\":1776:1777   */\n      0x00\n        /* \"#utility.yul\":1769:1857   */\n      mstore\n        /* \"#utility.yul\":1876:1880   */\n      0x41\n        /* \"#utility.yul\":1873:1874   */\n      0x04\n        /* \"#utility.yul\":1866:1881   */\n      mstore\n        /* \"#utility.yul\":1900:1904   */\n      0x24\n        /* \"#utility.yul\":1897:1898   */\n      0x00\n        /* \"#utility.yul\":1890:1905   */\n      revert\n        /* \"#utility.yul\":1917:2198   */\n    tag_61:\n        /* \"#utility.yul\":2000:2027   */\n      tag_112\n        /* \"#utility.yul\":2022:2026   */\n      dup3\n        /* \"#utility.yul\":2000:2027   */\n      tag_59\n      jump\t// in\n    tag_112:\n        /* \"#utility.yul\":1992:1998   */\n      dup2\n        /* \"#utility.yul\":1988:2028   */\n      add\n        /* \"#utility.yul\":2130:2136   */\n      dup2\n        /* \"#utility.yul\":2118:2128   */\n      dup2\n        /* \"#utility.yul\":2115:2137   */\n      lt\n        /* \"#utility.yul\":2094:2112   */\n      0xffffffffffffffff\n        /* \"#utility.yul\":2082:2092   */\n      dup3\n        /* \"#utility.yul\":2079:2113   */\n      gt\n        /* \"#utility.yul\":2076:2138   */\n      or\n        /* \"#utility.yul\":2073:2161   */\n      iszero\n      tag_113\n      jumpi\n        /* \"#utility.yul\":2141:2159   */\n      tag_114\n      tag_60\n      jump\t// in\n    tag_114:\n        /* \"#utility.yul\":2073:2161   */\n    tag_113:\n        /* \"#utility.yul\":2181:2191   */\n      dup1\n        /* \"#utility.yul\":2177:2179   */\n      0x40\n        /* \"#utility.yul\":2170:2192   */\n      mstore\n        /* \"#utility.yul\":1960:2198   */\n      pop\n        /* \"#utility.yul\":1917:2198   */\n      pop\n      pop\n      jump\t// out\n        /* \"#utility.yul\":2204:2333   */\n    tag_62:\n        /* \"#utility.yul\":2238:2244   */\n      0x00\n        /* \"#utility.yul\":2265:2285   */\n      tag_116\n      tag_52\n      jump\t// in\n    tag_116:\n        /* \"#utility.yul\":2255:2285   */\n      swap1\n      pop\n        /* \"#utility.yul\":2294:2327   */\n      tag_117\n        /* \"#utility.yul\":2322:2326   */\n      dup3\n        /* \"#utility.yul\":2314:2320   */\n      dup3\n        /* \"#utility.yul\":2294:2327   */\n      tag_61\n      jump\t// in\n    tag_117:\n        /* \"#utility.yul\":2204:2333   */\n      swap2\n      swap1\n      pop\n      jump\t// out\n        /* \"#utility.yul\":2339:2647   */\n    tag_63:\n        /* \"#utility.yul\":2401:2405   */\n      0x00\n        /* \"#utility.yul\":2491:2509   */\n      0xffffffffffffffff\n        /* \"#utility.yul\":2483:2489   */\n      dup3\n        /* \"#utility.yul\":2480:2510   */\n      gt\n        /* \"#utility.yul\":2477:2533   */\n      iszero\n      tag_119\n      jumpi\n        /* \"#utility.yul\":2513:2531   */\n      tag_120\n      tag_60\n      jump\t// in\n    tag_120:\n        /* \"#utility.yul\":2477:2533   */\n    tag_119:\n        /* \"#utility.yul\":2551:2580   */\n      tag_121\n        /* \"#utility.yul\":2573:2579   */\n      dup3\n        /* \"#utility.yul\":2551:2580   */\n      tag_59\n      jump\t// in\n    tag_121:\n        /* \"#utility.yul\":2543:2580   */\n      swap1\n      pop\n        /* \"#utility.yul\":2635:2639   */\n      0x20\n        /* \"#utility.yul\":2629:2633   */\n      dup2\n        /* \"#utility.yul\":2625:2640   */\n      add\n        /* \"#utility.yul\":2617:2640   */\n      swap1\n      pop\n        /* \"#utility.yul\":2339:2647   */\n      swap2\n      swap1\n      pop\n      jump\t// out\n        /* \"#utility.yul\":2653:2799   */\n    tag_64:\n        /* \"#utility.yul\":2750:2756   */\n      dup3\n        /* \"#utility.yul\":2745:2748   */\n      dup2\n        /* \"#utility.yul\":2740:2743   */\n      dup4\n        /* \"#utility.yul\":2727:2757   */\n      calldatacopy\n        /* \"#utility.yul\":2791:2792   */\n      0x00\n        /* \"#utility.yul\":2782:2788   */\n      dup4\n        /* \"#utility.yul\":2777:2780   */\n      dup4\n        /* \"#utility.yul\":2773:2789   */\n      add\n        /* \"#utility.yul\":2766:2793   */\n      mstore\n        /* \"#utility.yul\":2653:2799   */\n      pop\n      pop\n      pop\n      jump\t// out\n        /* \"#utility.yul\":2805:3230   */\n    tag_65:\n        /* \"#utility.yul\":2883:2888   */\n      0x00\n        /* \"#utility.yul\":2908:2974   */\n      tag_124\n        /* \"#utility.yul\":2924:2973   */\n      tag_125\n        /* \"#utility.yul\":2966:2972   */\n      dup5\n        /* \"#utility.yul\":2924:2973   */\n      tag_63\n      jump\t// in\n    tag_125:\n        /* \"#utility.yul\":2908:2974   */\n      tag_62\n      jump\t// in\n    tag_124:\n        /* \"#utility.yul\":2899:2974   */\n      swap1\n      pop\n        /* \"#utility.yul\":2997:3003   */\n      dup3\n        /* \"#utility.yul\":2990:2995   */\n      dup2\n        /* \"#utility.yul\":2983:3004   */\n      mstore\n        /* \"#utility.yul\":3035:3039   */\n      0x20\n        /* \"#utility.yul\":3028:3033   */\n      dup2\n        /* \"#utility.yul\":3024:3040   */\n      add\n        /* \"#utility.yul\":3073:3076   */\n      dup5\n        /* \"#utility.yul\":3064:3070   */\n      dup5\n        /* \"#utility.yul\":3059:3062   */\n      dup5\n        /* \"#utility.yul\":3055:3071   */\n      add\n        /* \"#utility.yul\":3052:3077   */\n      gt\n        /* \"#utility.yul\":3049:3161   */\n      iszero\n      tag_126\n      jumpi\n        /* \"#utility.yul\":3080:3159   */\n      tag_127\n      tag_58\n      jump\t// in\n    tag_127:\n        /* \"#utility.yul\":3049:3161   */\n    tag_126:\n        /* \"#utility.yul\":3170:3224   */\n      tag_128\n        /* \"#utility.yul\":3217:3223   */\n      dup5\n        /* \"#utility.yul\":3212:3215   */\n      dup3\n        /* \"#utility.yul\":3207:3210   */\n      dup6\n        /* \"#utility.yul\":3170:3224   */\n      tag_64\n      jump\t// in\n    tag_128:\n        /* \"#utility.yul\":2889:3230   */\n      pop\n        /* \"#utility.yul\":2805:3230   */\n      swap4\n      swap3\n      pop\n      pop\n      pop\n      jump\t// out\n        /* \"#utility.yul\":3250:3590   */\n    tag_66:\n        /* \"#utility.yul\":3306:3311   */\n      0x00\n        /* \"#utility.yul\":3355:3358   */\n      dup3\n        /* \"#utility.yul\":3348:3352   */\n      0x1f\n        /* \"#utility.yul\":3340:3346   */\n      dup4\n        /* \"#utility.yul\":3336:3353   */\n      add\n        /* \"#utility.yul\":3332:3359   */\n      slt\n        /* \"#utility.yul\":3322:3444   */\n      tag_130\n      jumpi\n        /* \"#utility.yul\":3363:3442   */\n      tag_131\n      tag_57\n      jump\t// in\n    tag_131:\n        /* \"#utility.yul\":3322:3444   */\n    tag_130:\n        /* \"#utility.yul\":3480:3486   */\n      dup2\n        /* \"#utility.yul\":3467:3487   */\n      calldataload\n        /* \"#utility.yul\":3505:3584   */\n      tag_132\n        /* \"#utility.yul\":3580:3583   */\n      dup5\n        /* \"#utility.yul\":3572:3578   */\n      dup3\n        /* \"#utility.yul\":3565:3569   */\n      0x20\n        /* \"#utility.yul\":3557:3563   */\n      dup7\n        /* \"#utility.yul\":3553:3570   */\n      add\n        /* \"#utility.yul\":3505:3584   */\n      tag_65\n      jump\t// in\n    tag_132:\n        /* \"#utility.yul\":3496:3584   */\n      swap2\n      pop\n        /* \"#utility.yul\":3312:3590   */\n      pop\n        /* \"#utility.yul\":3250:3590   */\n      swap3\n      swap2\n      pop\n      pop\n      jump\t// out\n        /* \"#utility.yul\":3596:4105   */\n    tag_22:\n        /* \"#utility.yul\":3665:3671   */\n      0x00\n        /* \"#utility.yul\":3714:3716   */\n      0x20\n        /* \"#utility.yul\":3702:3711   */\n      dup3\n        /* \"#utility.yul\":3693:3700   */\n      dup5\n        /* \"#utility.yul\":3689:3712   */\n      sub\n        /* \"#utility.yul\":3685:3717   */\n      slt\n        /* \"#utility.yul\":3682:3801   */\n      iszero\n      tag_134\n      jumpi\n        /* \"#utility.yul\":3720:3799   */\n      tag_135\n      tag_53\n      jump\t// in\n    tag_135:\n        /* \"#utility.yul\":3682:3801   */\n    tag_134:\n        /* \"#utility.yul\":3868:3869   */\n      0x00\n        /* \"#utility.yul\":3857:3866   */\n      dup3\n        /* \"#utility.yul\":3853:3870   */\n      add\n        /* \"#utility.yul\":3840:3871   */\n      calldataload\n        /* \"#utility.yul\":3898:3916   */\n      0xffffffffffffffff\n        /* \"#utility.yul\":3890:3896   */\n      dup2\n        /* \"#utility.yul\":3887:3917   */\n      gt\n        /* \"#utility.yul\":3884:4001   */\n      iszero\n      tag_136\n      jumpi\n        /* \"#utility.yul\":3920:3999   */\n      tag_137\n      tag_54\n      jump\t// in\n    tag_137:\n        /* \"#utility.yul\":3884:4001   */\n    tag_136:\n        /* \"#utility.yul\":4025:4088   */\n      tag_138\n        /* \"#utility.yul\":4080:4087   */\n      dup5\n        /* \"#utility.yul\":4071:4077   */\n      dup3\n        /* \"#utility.yul\":4060:4069   */\n      dup6\n        /* \"#utility.yul\":4056:4078   */\n      add\n        /* \"#utility.yul\":4025:4088   */\n      tag_66\n      jump\t// in\n    tag_138:\n        /* \"#utility.yul\":4015:4088   */\n      swap2\n      pop\n        /* \"#utility.yul\":3811:4098   */\n      pop\n        /* \"#utility.yul\":3596:4105   */\n      swap3\n      swap2\n      pop\n      pop\n      jump\t// out\n        /* \"#utility.yul\":4111:4765   */\n    tag_27:\n        /* \"#utility.yul\":4189:4195   */\n      0x00\n        /* \"#utility.yul\":4197:4203   */\n      dup1\n        /* \"#utility.yul\":4246:4248   */\n      0x40\n        /* \"#utility.yul\":4234:4243   */\n      dup4\n        /* \"#utility.yul\":4225:4232   */\n      dup6\n        /* \"#utility.yul\":4221:4244   */\n      sub\n        /* \"#utility.yul\":4217:4249   */\n      slt\n        /* \"#utility.yul\":4214:4333   */\n      iszero\n      tag_140\n      jumpi\n        /* \"#utility.yul\":4252:4331   */\n      tag_141\n      tag_53\n      jump\t// in\n    tag_141:\n        /* \"#utility.yul\":4214:4333   */\n    tag_140:\n        /* \"#utility.yul\":4372:4373   */\n      0x00\n        /* \"#utility.yul\":4397:4450   */\n      tag_142\n        /* \"#utility.yul\":4442:4449   */\n      dup6\n        /* \"#utility.yul\":4433:4439   */\n      dup3\n        /* \"#utility.yul\":4422:4431   */\n      dup7\n        /* \"#utility.yul\":4418:4440   */\n      add\n        /* \"#utility.yul\":4397:4450   */\n      tag_56\n      jump\t// in\n    tag_142:\n        /* \"#utility.yul\":4387:4450   */\n      swap3\n      pop\n        /* \"#utility.yul\":4343:4460   */\n      pop\n        /* \"#utility.yul\":4527:4529   */\n      0x20\n        /* \"#utility.yul\":4516:4525   */\n      dup4\n        /* \"#utility.yul\":4512:4530   */\n      add\n        /* \"#utility.yul\":4499:4531   */\n      calldataload\n        /* \"#utility.yul\":4558:4576   */\n      0xffffffffffffffff\n        /* \"#utility.yul\":4550:4556   */\n      dup2\n        /* \"#utility.yul\":4547:4577   */\n      gt\n        /* \"#utility.yul\":4544:4661   */\n      iszero\n      tag_143\n      jumpi\n        /* \"#utility.yul\":4580:4659   */\n      tag_144\n      tag_54\n      jump\t// in\n    tag_144:\n        /* \"#utility.yul\":4544:4661   */\n    tag_143:\n        /* \"#utility.yul\":4685:4748   */\n      tag_145\n        /* \"#utility.yul\":4740:4747   */\n      dup6\n        /* \"#utility.yul\":4731:4737   */\n      dup3\n        /* \"#utility.yul\":4720:4729   */\n      dup7\n        /* \"#utility.yul\":4716:4738   */\n      add\n        /* \"#utility.yul\":4685:4748   */\n      tag_66\n      jump\t// in\n    tag_145:\n        /* \"#utility.yul\":4675:4748   */\n      swap2\n      pop\n        /* \"#utility.yul\":4470:4758   */\n      pop\n        /* \"#utility.yul\":4111:4765   */\n      swap3\n      pop\n      swap3\n      swap1\n      pop\n      jump\t// out\n        /* \"#utility.yul\":4771:4870   */\n    tag_67:\n        /* \"#utility.yul\":4823:4829   */\n      0x00\n        /* \"#utility.yul\":4857:4862   */\n      dup2\n        /* \"#utility.yul\":4851:4863   */\n      mload\n        /* \"#utility.yul\":4841:4863   */\n      swap1\n      pop\n        /* \"#utility.yul\":4771:4870   */\n      swap2\n      swap1\n      pop\n      jump\t// out\n        /* \"#utility.yul\":4876:5045   */\n    tag_68:\n        /* \"#utility.yul\":4960:4971   */\n      0x00\n        /* \"#utility.yul\":4994:5000   */\n      dup3\n        /* \"#utility.yul\":4989:4992   */\n      dup3\n        /* \"#utility.yul\":4982:5001   */\n      mstore\n        /* \"#utility.yul\":5034:5038   */\n      0x20\n        /* \"#utility.yul\":5029:5032   */\n      dup3\n        /* \"#utility.yul\":5025:5039   */\n      add\n        /* \"#utility.yul\":5010:5039   */\n      swap1\n      pop\n        /* \"#utility.yul\":4876:5045   */\n      swap3\n      swap2\n      pop\n      pop\n      jump\t// out\n        /* \"#utility.yul\":5051:5297   */\n    tag_69:\n        /* \"#utility.yul\":5132:5133   */\n      0x00\n        /* \"#utility.yul\":5142:5255   */\n    tag_149:\n        /* \"#utility.yul\":5156:5162   */\n      dup4\n        /* \"#utility.yul\":5153:5154   */\n      dup2\n        /* \"#utility.yul\":5150:5163   */\n      lt\n        /* \"#utility.yul\":5142:5255   */\n      iszero\n      tag_151\n      jumpi\n        /* \"#utility.yul\":5241:5242   */\n      dup1\n        /* \"#utility.yul\":5236:5239   */\n      dup3\n        /* \"#utility.yul\":5232:5243   */\n      add\n        /* \"#utility.yul\":5226:5244   */\n      mload\n        /* \"#utility.yul\":5222:5223   */\n      dup2\n        /* \"#utility.yul\":5217:5220   */\n      dup5\n        /* \"#utility.yul\":5213:5224   */\n      add\n        /* \"#utility.yul\":5206:5245   */\n      mstore\n        /* \"#utility.yul\":5178:5180   */\n      0x20\n        /* \"#utility.yul\":5175:5176   */\n      dup2\n        /* \"#utility.yul\":5171:5181   */\n      add\n        /* \"#utility.yul\":5166:5181   */\n      swap1\n      pop\n        /* \"#utility.yul\":5142:5255   */\n      jump(tag_149)\n    tag_151:\n        /* \"#utility.yul\":5289:5290   */\n      0x00\n        /* \"#utility.yul\":5280:5286   */\n      dup5\n        /* \"#utility.yul\":5275:5278   */\n      dup5\n        /* \"#utility.yul\":5271:5287   */\n      add\n        /* \"#utility.yul\":5264:5291   */\n      mstore\n        /* \"#utility.yul\":5113:5297   */\n      pop\n        /* \"#utility.yul\":5051:5297   */\n      pop\n      pop\n      pop\n      jump\t// out\n        /* \"#utility.yul\":5303:5680   */\n    tag_70:\n        /* \"#utility.yul\":5391:5394   */\n      0x00\n        /* \"#utility.yul\":5419:5458   */\n      tag_153\n        /* \"#utility.yul\":5452:5457   */\n      dup3\n        /* \"#utility.yul\":5419:5458   */\n      tag_67\n      jump\t// in\n    tag_153:\n        /* \"#utility.yul\":5474:5545   */\n      tag_154\n        /* \"#utility.yul\":5538:5544   */\n      dup2\n        /* \"#utility.yul\":5533:5536   */\n      dup6\n        /* \"#utility.yul\":5474:5545   */\n      tag_68\n      jump\t// in\n    tag_154:\n        /* \"#utility.yul\":5467:5545   */\n      swap4\n      pop\n        /* \"#utility.yul\":5554:5619   */\n      tag_155\n        /* \"#utility.yul\":5612:5618   */\n      dup2\n        /* \"#utility.yul\":5607:5610   */\n      dup6\n        /* \"#utility.yul\":5600:5604   */\n      0x20\n        /* \"#utility.yul\":5593:5598   */\n      dup7\n        /* \"#utility.yul\":5589:5605   */\n      add\n        /* \"#utility.yul\":5554:5619   */\n      tag_69\n      jump\t// in\n    tag_155:\n        /* \"#utility.yul\":5644:5673   */\n      tag_156\n        /* \"#utility.yul\":5666:5672   */\n      dup2\n        /* \"#utility.yul\":5644:5673   */\n      tag_59\n      jump\t// in\n    tag_156:\n        /* \"#utility.yul\":5639:5642   */\n      dup5\n        /* \"#utility.yul\":5635:5674   */\n      add\n        /* \"#utility.yul\":5628:5674   */\n      swap2\n      pop\n        /* \"#utility.yul\":5395:5680   */\n      pop\n        /* \"#utility.yul\":5303:5680   */\n      swap3\n      swap2\n      pop\n      pop\n      jump\t// out\n        /* \"#utility.yul\":5686:6109   */\n    tag_33:\n        /* \"#utility.yul\":5827:5831   */\n      0x00\n        /* \"#utility.yul\":5865:5867   */\n      0x40\n        /* \"#utility.yul\":5854:5863   */\n      dup3\n        /* \"#utility.yul\":5850:5868   */\n      add\n        /* \"#utility.yul\":5842:5868   */\n      swap1\n      pop\n        /* \"#utility.yul\":5878:5949   */\n      tag_158\n        /* \"#utility.yul\":5946:5947   */\n      0x00\n        /* \"#utility.yul\":5935:5944   */\n      dup4\n        /* \"#utility.yul\":5931:5948   */\n      add\n        /* \"#utility.yul\":5922:5928   */\n      dup6\n        /* \"#utility.yul\":5878:5949   */\n      tag_51\n      jump\t// in\n    tag_158:\n        /* \"#utility.yul\":5996:6005   */\n      dup2\n        /* \"#utility.yul\":5990:5994   */\n      dup2\n        /* \"#utility.yul\":5986:6006   */\n      sub\n        /* \"#utility.yul\":5981:5983   */\n      0x20\n        /* \"#utility.yul\":5970:5979   */\n      dup4\n        /* \"#utility.yul\":5966:5984   */\n      add\n        /* \"#utility.yul\":5959:6007   */\n      mstore\n        /* \"#utility.yul\":6024:6102   */\n      tag_159\n        /* \"#utility.yul\":6097:6101   */\n      dup2\n        /* \"#utility.yul\":6088:6094   */\n      dup5\n        /* \"#utility.yul\":6024:6102   */\n      tag_70\n      jump\t// in\n    tag_159:\n        /* \"#utility.yul\":6016:6102   */\n      swap1\n      pop\n        /* \"#utility.yul\":5686:6109   */\n      swap4\n      swap3\n      pop\n      pop\n      pop\n      jump\t// out\n        /* \"#utility.yul\":6115:6295   */\n    tag_71:\n        /* \"#utility.yul\":6163:6240   */\n      0x4e487b7100000000000000000000000000000000000000000000000000000000\n        /* \"#utility.yul\":6160:6161   */\n      0x00\n        /* \"#utility.yul\":6153:6241   */\n      mstore\n        /* \"#utility.yul\":6260:6264   */\n      0x22\n        /* \"#utility.yul\":6257:6258   */\n      0x04\n        /* \"#utility.yul\":6250:6265   */\n      mstore\n        /* \"#utility.yul\":6284:6288   */\n      0x24\n        /* \"#utility.yul\":6281:6282   */\n      0x00\n        /* \"#utility.yul\":6274:6289   */\n      revert\n        /* \"#utility.yul\":6301:6621   */\n    tag_45:\n        /* \"#utility.yul\":6345:6351   */\n      0x00\n        /* \"#utility.yul\":6382:6383   */\n      0x02\n        /* \"#utility.yul\":6376:6380   */\n      dup3\n        /* \"#utility.yul\":6372:6384   */\n      div\n        /* \"#utility.yul\":6362:6384   */\n      swap1\n      pop\n        /* \"#utility.yul\":6429:6430   */\n      0x01\n        /* \"#utility.yul\":6423:6427   */\n      dup3\n        /* \"#utility.yul\":6419:6431   */\n      and\n        /* \"#utility.yul\":6450:6468   */\n      dup1\n        /* \"#utility.yul\":6440:6521   */\n      tag_162\n      jumpi\n        /* \"#utility.yul\":6506:6510   */\n      0x7f\n        /* \"#utility.yul\":6498:6504   */\n      dup3\n        /* \"#utility.yul\":6494:6511   */\n      and\n        /* \"#utility.yul\":6484:6511   */\n      swap2\n      pop\n        /* \"#utility.yul\":6440:6521   */\n    tag_162:\n        /* \"#utility.yul\":6568:6570   */\n      0x20\n        /* \"#utility.yul\":6560:6566   */\n      dup3\n        /* \"#utility.yul\":6557:6571   */\n      lt\n        /* \"#utility.yul\":6537:6555   */\n      dup2\n        /* \"#utility.yul\":6534:6572   */\n      sub\n        /* \"#utility.yul\":6531:6615   */\n      tag_163\n      jumpi\n        /* \"#utility.yul\":6587:6605   */\n      tag_164\n      tag_71\n      jump\t// in\n    tag_164:\n        /* \"#utility.yul\":6531:6615   */\n    tag_163:\n        /* \"#utility.yul\":6352:6621   */\n      pop\n        /* \"#utility.yul\":6301:6621   */\n      swap2\n      swap1\n      pop\n      jump\t// out\n        /* \"#utility.yul\":6627:6768   */\n    tag_72:\n        /* \"#utility.yul\":6676:6680   */\n      0x00\n        /* \"#utility.yul\":6699:6702   */\n      dup2\n        /* \"#utility.yul\":6691:6702   */\n      swap1\n      pop\n        /* \"#utility.yul\":6722:6725   */\n      dup2\n        /* \"#utility.yul\":6719:6720   */\n      0x00\n        /* \"#utility.yul\":6712:6726   */\n      mstore\n        /* \"#utility.yul\":6756:6760   */\n      0x20\n        /* \"#utility.yul\":6753:6754   */\n      0x00\n        /* \"#utility.yul\":6743:6761   */\n      keccak256\n        /* \"#utility.yul\":6735:6761   */\n      swap1\n      pop\n        /* \"#utility.yul\":6627:6768   */\n      swap2\n      swap1\n      pop\n      jump\t// out\n        /* \"#utility.yul\":6774:6867   */\n    tag_73:\n        /* \"#utility.yul\":6811:6817   */\n      0x00\n        /* \"#utility.yul\":6858:6860   */\n      0x20\n        /* \"#utility.yul\":6853:6855   */\n      0x1f\n        /* \"#utility.yul\":6846:6851   */\n      dup4\n        /* \"#utility.yul\":6842:6856   */\n      add\n        /* \"#utility.yul\":6838:6861   */\n      div\n        /* \"#utility.yul\":6828:6861   */\n      swap1\n      pop\n        /* \"#utility.yul\":6774:6867   */\n      swap2\n      swap1\n      pop\n      jump\t// out\n        /* \"#utility.yul\":6873:6980   */\n    tag_74:\n        /* \"#utility.yul\":6917:6925   */\n      0x00\n        /* \"#utility.yul\":6967:6972   */\n      dup3\n        /* \"#utility.yul\":6961:6965   */\n      dup3\n        /* \"#utility.yul\":6957:6973   */\n      shl\n        /* \"#utility.yul\":6936:6973   */\n      swap1\n      pop\n        /* \"#utility.yul\":6873:6980   */\n      swap3\n      swap2\n      pop\n      pop\n      jump\t// out\n        /* \"#utility.yul\":6986:7379   */\n    tag_75:\n        /* \"#utility.yul\":7055:7061   */\n      0x00\n        /* \"#utility.yul\":7105:7106   */\n      0x08\n        /* \"#utility.yul\":7093:7103   */\n      dup4\n        /* \"#utility.yul\":7089:7107   */\n      mul\n        /* \"#utility.yul\":7128:7225   */\n      tag_169\n        /* \"#utility.yul\":7158:7224   */\n      0xffffffffffffffffffffffffffffffffffffffffffffffffffffffffffffffff\n        /* \"#utility.yul\":7147:7156   */\n      dup3\n        /* \"#utility.yul\":7128:7225   */\n      tag_74\n      jump\t// in\n    tag_169:\n        /* \"#utility.yul\":7246:7285   */\n      tag_170\n        /* \"#utility.yul\":7276:7284   */\n      dup7\n        /* \"#utility.yul\":7265:7274   */\n      dup4\n        /* \"#utility.yul\":7246:7285   */\n      tag_74\n      jump\t// in\n    tag_170:\n        /* \"#utility.yul\":7234:7285   */\n      swap6\n      pop\n        /* \"#utility.yul\":7318:7322   */\n      dup1\n        /* \"#utility.yul\":7314:7323   */\n      not\n        /* \"#utility.yul\":7307:7312   */\n      dup5\n        /* \"#utility.yul\":7303:7324   */\n      and\n        /* \"#utility.yul\":7294:7324   */\n      swap4\n      pop\n        /* \"#utility.yul\":7367:7371   */\n      dup1\n        /* \"#utility.yul\":7357:7365   */\n      dup7\n        /* \"#utility.yul\":7353:7372   */\n      and\n        /* \"#utility.yul\":7346:7351   */\n      dup5\n        /* \"#utility.yul\":7343:7373   */\n      or\n        /* \"#utility.yul\":7333:7373   */\n      swap3\n      pop\n        /* \"#utility.yul\":7062:7379   */\n      pop\n      pop\n        /* \"#utility.yul\":6986:7379   */\n      swap4\n      swap3\n      pop\n      pop\n      pop\n      jump\t// out\n        /* \"#utility.yul\":7385:7445   */\n    tag_76:\n        /* \"#utility.yul\":7413:7416   */\n      0x00\n        /* \"#utility.yul\":7434:7439   */\n      dup2\n        /* \"#utility.yul\":7427:7439   */\n      swap1\n      pop\n        /* \"#utility.yul\":7385:7445   */\n      swap2\n      swap1\n      pop\n      jump\t// out\n        /* \"#utility.yul\":7451:7593   */\n    tag_77:\n        /* \"#utility.yul\":7501:7510   */\n      0x00\n        /* \"#utility.yul\":7534:7587   */\n      tag_173\n        /* \"#utility.yul\":7552:7586   */\n      tag_174\n        /* \"#utility.yul\":7561:7585   */\n      tag_175\n        /* \"#utility.yul\":7579:7584   */\n      dup5\n        /* \"#utility.yul\":7561:7585   */\n      tag_50\n      jump\t// in\n    tag_175:\n        /* \"#utility.yul\":7552:7586   */\n      tag_76\n      jump\t// in\n    tag_174:\n        /* \"#utility.yul\":7534:7587   */\n      tag_50\n      jump\t// in\n    tag_173:\n        /* \"#utility.yul\":7521:7587   */\n      swap1\n      pop\n        /* \"#utility.yul\":7451:7593   */\n      swap2\n      swap1\n      pop\n      jump\t// out\n        /* \"#utility.yul\":7599:7674   */\n    tag_78:\n        /* \"#utility.yul\":7642:7645   */\n      0x00\n        /* \"#utility.yul\":7663:7668   */\n      dup2\n        /* \"#utility.yul\":7656:7668   */\n      swap1\n      pop\n        /* \"#utility.yul\":7599:7674   */\n      swap2\n      swap1\n      pop\n      jump\t// out\n        /* \"#utility.yul\":7680:7949   */\n    tag_79:\n        /* \"#utility.yul\":7790:7829   */\n      tag_178\n        /* \"#utility.yul\":7821:7828   */\n      dup4\n        /* \"#utility.yul\":7790:7829   */\n      tag_77\n      jump\t// in\n    tag_178:\n        /* \"#utility.yul\":7851:7942   */\n      tag_179\n        /* \"#utility.yul\":7900:7941   */\n      tag_180\n        /* \"#utility.yul\":7924:7940   */\n      dup3\n        /* \"#utility.yul\":7900:7941   */\n      tag_78\n      jump\t// in\n    tag_180:\n        /* \"#utility.yul\":7892:7898   */\n      dup5\n        /* \"#utility.yul\":7885:7889   */\n      dup5\n        /* \"#utility.yul\":7879:7890   */\n      sload\n        /* \"#utility.yul\":7851:7942   */\n      tag_75\n      jump\t// in\n    tag_179:\n        /* \"#utility.yul\":7845:7849   */\n      dup3\n        /* \"#utility.yul\":7838:7943   */\n      sstore\n        /* \"#utility.yul\":7756:7949   */\n      pop\n        /* \"#utility.yul\":7680:7949   */\n      pop\n      pop\n      pop\n      jump\t// out\n        /* \"#utility.yul\":7955:8028   */\n    tag_80:\n        /* \"#utility.yul\":8000:8003   */\n      0x00\n        /* \"#utility.yul\":7955:8028   */\n      swap1\n      jump\t// out\n        /* \"#utility.yul\":8034:8223   */\n    tag_81:\n        /* \"#utility.yul\":8111:8143   */\n      tag_183\n      tag_80\n      jump\t// in\n    tag_183:\n        /* \"#utility.yul\":8152:8217   */\n      tag_184\n        /* \"#utility.yul\":8210:8216   */\n      dup2\n        /* \"#utility.yul\":8202:8208   */\n      dup5\n        /* \"#utility.yul\":8196:8200   */\n      dup5\n        /* \"#utility.yul\":8152:8217   */\n      tag_79\n      jump\t// in\n    tag_184:\n        /* \"#utility.yul\":8087:8223   */\n      pop\n        /* \"#utility.yul\":8034:8223   */\n      pop\n      pop\n      jump\t// out\n        /* \"#utility.yul\":8229:8415   */\n    tag_82:\n        /* \"#utility.yul\":8289:8409   */\n    tag_186:\n        /* \"#utility.yul\":8306:8309   */\n      dup2\n        /* \"#utility.yul\":8299:8304   */\n      dup2\n        /* \"#utility.yul\":8296:8310   */\n      lt\n        /* \"#utility.yul\":8289:8409   */\n      iszero\n      tag_188\n      jumpi\n        /* \"#utility.yul\":8360:8399   */\n      tag_189\n        /* \"#utility.yul\":8397:8398   */\n      0x00\n        /* \"#utility.yul\":8390:8395   */\n      dup3\n        /* \"#utility.yul\":8360:8399   */\n      tag_81\n      jump\t// in\n    tag_189:\n        /* \"#utility.yul\":8333:8334   */\n      0x01\n        /* \"#utility.yul\":8326:8331   */\n      dup2\n        /* \"#utility.yul\":8322:8335   */\n      add\n        /* \"#utility.yul\":8313:8335   */\n      swap1\n      pop\n        /* \"#utility.yul\":8289:8409   */\n      jump(tag_186)\n    tag_188:\n        /* \"#utility.yul\":8229:8415   */\n      pop\n      pop\n      jump\t// out\n        /* \"#utility.yul\":8421:8964   */\n    tag_83:\n        /* \"#utility.yul\":8522:8524   */\n      0x1f\n        /* \"#utility.yul\":8517:8520   */\n      dup3\n        /* \"#utility.yul\":8514:8525   */\n      gt\n        /* \"#utility.yul\":8511:8957   */\n      iszero\n      tag_191\n      jumpi\n        /* \"#utility.yul\":8556:8594   */\n      tag_192\n        /* \"#utility.yul\":8588:8593   */\n      dup2\n        /* \"#utility.yul\":8556:8594   */\n      tag_72\n      jump\t// in\n    tag_192:\n        /* \"#utility.yul\":8640:8669   */\n      tag_193\n        /* \"#utility.yul\":8658:8668   */\n      dup5\n        /* \"#utility.yul\":8640:8669   */\n      tag_73\n      jump\t// in\n    tag_193:\n        /* \"#utility.yul\":8630:8638   */\n      dup2\n        /* \"#utility.yul\":8626:8670   */\n      add\n        /* \"#utility.yul\":8823:8825   */\n      0x20\n        /* \"#utility.yul\":8811:8821   */\n      dup6\n        /* \"#utility.yul\":8808:8826   */\n      lt\n        /* \"#utility.yul\":8805:8854   */\n      iszero\n      tag_194\n      jumpi\n        /* \"#utility.yul\":8844:8852   */\n      dup2\n        /* \"#utility.yul\":8829:8852   */\n      swap1\n      pop\n        /* \"#utility.yul\":8805:8854   */\n    tag_194:\n        /* \"#utility.yul\":8867:8947   */\n      tag_195\n        /* \"#utility.yul\":8923:8945   */\n      tag_196\n        /* \"#utility.yul\":8941:8944   */\n      dup6\n        /* \"#utility.yul\":8923:8945   */\n      tag_73\n      jump\t// in\n    tag_196:\n        /* \"#utility.yul\":8913:8921   */\n      dup4\n        /* \"#utility.yul\":8909:8946   */\n      add\n        /* \"#utility.yul\":8896:8907   */\n      dup3\n        /* \"#utility.yul\":8867:8947   */\n      tag_82\n      jump\t// in\n    tag_195:\n        /* \"#utility.yul\":8526:8957   */\n      pop\n      pop\n        /* \"#utility.yul\":8511:8957   */\n    tag_191:\n        /* \"#utility.yul\":8421:8964   */\n      pop\n      pop\n      pop\n      jump\t// out\n        /* \"#utility.yul\":8970:9087   */\n    tag_84:\n        /* \"#utility.yul\":9024:9032   */\n      0x00\n        /* \"#utility.yul\":9074:9079   */\n      dup3\n        /* \"#utility.yul\":9068:9072   */\n      dup3\n        /* \"#utility.yul\":9064:9080   */\n      shr\n        /* \"#utility.yul\":9043:9080   */\n      swap1\n      pop\n        /* \"#utility.yul\":8970:9087   */\n      swap3\n      swap2\n      pop\n      pop\n      jump\t// out\n        /* \"#utility.yul\":9093:9262   */\n    tag_85:\n        /* \"#utility.yul\":9137:9143   */\n      0x00\n        /* \"#utility.yul\":9170:9221   */\n      tag_199\n        /* \"#utility.yul\":9218:9219   */\n      0x00\n        /* \"#utility.yul\":9214:9220   */\n      not\n        /* \"#utility.yul\":9206:9211   */\n      dup5\n        /* \"#utility.yul\":9203:9204   */\n      0x08\n        /* \"#utility.yul\":9199:9212   */\n      mul\n        /* \"#utility.yul\":9170:9221   */\n      tag_84\n      jump\t// in\n    tag_199:\n        /* \"#utility.yul\":9166:9222   */\n      not\n        /* \"#utility.yul\":9251:9255   */\n      dup1\n        /* \"#utility.yul\":9245:9249   */\n      dup4\n        /* \"#utility.yul\":9241:9256   */\n      and\n        /* \"#utility.yul\":9231:9256   */\n      swap2\n      pop\n        /* \"#utility.yul\":9144:9262   */\n      pop\n        /* \"#utility.yul\":9093:9262   */\n      swap3\n      swap2\n      pop\n      pop\n      jump\t// out\n        /* \"#utility.yul\":9267:9562   */\n    tag_86:\n        /* \"#utility.yul\":9343:9347   */\n      0x00\n        /* \"#utility.yul\":9489:9518   */\n      tag_201\n        /* \"#utility.yul\":9514:9517   */\n      dup4\n        /* \"#utility.yul\":9508:9512   */\n      dup4\n        /* \"#utility.yul\":9489:9518   */\n      tag_85\n      jump\t// in\n    tag_201:\n        /* \"#utility.yul\":9481:9518   */\n      swap2\n      pop\n        /* \"#utility.yul\":9551:9554   */\n      dup3\n        /* \"#utility.yul\":9548:9549   */\n      0x02\n        /* \"#utility.yul\":9544:9555   */\n      mul\n        /* \"#utility.yul\":9538:9542   */\n      dup3\n        /* \"#utility.yul\":9535:9556   */\n      or\n        /* \"#utility.yul\":9527:9556   */\n      swap1\n      pop\n        /* \"#utility.yul\":9267:9562   */\n      swap3\n      swap2\n      pop\n      pop\n      jump\t// out\n        /* \"#utility.yul\":9567:10962   */\n    tag_39:\n        /* \"#utility.yul\":9684:9721   */\n      tag_203\n        /* \"#utility.yul\":9717:9720   */\n      dup3\n        /* \"#utility.yul\":9684:9721   */\n      tag_67\n      jump\t// in\n    tag_203:\n        /* \"#utility.yul\":9786:9804   */\n      0xffffffffffffffff\n        /* \"#utility.yul\":9778:9784   */\n      dup2\n        /* \"#utility.yul\":9775:9805   */\n      gt\n        /* \"#utility.yul\":9772:9828   */\n      iszero\n      tag_204\n      jumpi\n        /* \"#utility.yul\":9808:9826   */\n      tag_205\n      tag_60\n      jump\t// in\n    tag_205:\n        /* \"#utility.yul\":9772:9828   */\n    tag_204:\n        /* \"#utility.yul\":9852:9890   */\n      tag_206\n        /* \"#utility.yul\":9884:9888   */\n      dup3\n        /* \"#utility.yul\":9878:9889   */\n      sload\n        /* \"#utility.yul\":9852:9890   */\n      tag_45\n      jump\t// in\n    tag_206:\n        /* \"#utility.yul\":9937:10004   */\n      tag_207\n        /* \"#utility.yul\":9997:10003   */\n      dup3\n        /* \"#utility.yul\":9989:9995   */\n      dup3\n        /* \"#utility.yul\":9983:9987   */\n      dup6\n        /* \"#utility.yul\":9937:10004   */\n      tag_83\n      jump\t// in\n    tag_207:\n        /* \"#utility.yul\":10031:10032   */\n      0x00\n        /* \"#utility.yul\":10055:10059   */\n      0x20\n        /* \"#utility.yul\":10042:10059   */\n      swap1\n      pop\n        /* \"#utility.yul\":10087:10089   */\n      0x1f\n        /* \"#utility.yul\":10079:10085   */\n      dup4\n        /* \"#utility.yul\":10076:10090   */\n      gt\n        /* \"#utility.yul\":10104:10105   */\n      0x01\n        /* \"#utility.yul\":10099:10717   */\n      dup2\n      eq\n      tag_209\n      jumpi\n        /* \"#utility.yul\":10761:10762   */\n      0x00\n        /* \"#utility.yul\":10778:10784   */\n      dup5\n        /* \"#utility.yul\":10775:10852   */\n      iszero\n      tag_210\n      jumpi\n        /* \"#utility.yul\":10827:10836   */\n      dup3\n        /* \"#utility.yul\":10822:10825   */\n      dup8\n        /* \"#utility.yul\":10818:10837   */\n      add\n        /* \"#utility.yul\":10812:10838   */\n      mload\n        /* \"#utility.yul\":10803:10838   */\n      swap1\n      pop\n        /* \"#utility.yul\":10775:10852   */\n    tag_210:\n        /* \"#utility.yul\":10878:10945   */\n      tag_211\n        /* \"#utility.yul\":10938:10944   */\n      dup6\n        /* \"#utility.yul\":10931:10936   */\n      dup3\n        /* \"#utility.yul\":10878:10945   */\n      tag_86\n      jump\t// in\n    tag_211:\n        /* \"#utility.yul\":10872:10876   */\n      dup7\n        /* \"#utility.yul\":10865:10946   */\n      sstore\n        /* \"#utility.yul\":10734:10956   */\n      pop\n        /* \"#utility.yul\":10069:10956   */\n      jump(tag_208)\n        /* \"#utility.yul\":10099:10717   */\n    tag_209:\n        /* \"#utility.yul\":10151:10155   */\n      0x1f\n        /* \"#utility.yul\":10147:10156   */\n      not\n        /* \"#utility.yul\":10139:10145   */\n      dup5\n        /* \"#utility.yul\":10135:10157   */\n      and\n        /* \"#utility.yul\":10185:10222   */\n      tag_212\n        /* \"#utility.yul\":10217:10221   */\n      dup7\n        /* \"#utility.yul\":10185:10222   */\n      tag_72\n      jump\t// in\n    tag_212:\n        /* \"#utility.yul\":10244:10245   */\n      0x00\n        /* \"#utility.yul\":10258:10466   */\n    tag_213:\n        /* \"#utility.yul\":10272:10279   */\n      dup3\n        /* \"#utility.yul\":10269:10270   */\n      dup2\n        /* \"#utility.yul\":10266:10280   */\n      lt\n        /* \"#utility.yul\":10258:10466   */\n      iszero\n      tag_215\n      jumpi\n        /* \"#utility.yul\":10351:10360   */\n      dup5\n        /* \"#utility.yul\":10346:10349   */\n      dup10\n        /* \"#utility.yul\":10342:10361   */\n      add\n        /* \"#utility.yul\":10336:10362   */\n      mload\n        /* \"#utility.yul\":10328:10334   */\n      dup3\n        /* \"#utility.yul\":10321:10363   */\n      sstore\n        /* \"#utility.yul\":10402:10403   */\n      0x01\n        /* \"#utility.yul\":10394:10400   */\n      dup3\n        /* \"#utility.yul\":10390:10404   */\n      add\n        /* \"#utility.yul\":10380:10404   */\n      swap2\n      pop\n        /* \"#utility.yul\":10449:10451   */\n      0x20\n        /* \"#utility.yul\":10438:10447   */\n      dup6\n        /* \"#utility.yul\":10434:10452   */\n      add\n        /* \"#utility.yul\":10421:10452   */\n      swap5\n      pop\n        /* \"#utility.yul\":10295:10299   */\n      0x20\n        /* \"#utility.yul\":10292:10293   */\n      dup2\n        /* \"#utility.yul\":10288:10300   */\n      add\n        /* \"#utility.yul\":10283:10300   */\n      swap1\n      pop\n        /* \"#utility.yul\":10258:10466   */\n      jump(tag_213)\n    tag_215:\n        /* \"#utility.yul\":10494:10500   */\n      dup7\n        /* \"#utility.yul\":10485:10492   */\n      dup4\n        /* \"#utility.yul\":10482:10501   */\n      lt\n        /* \"#utility.yul\":10479:10658   */\n      iszero\n      tag_216\n      jumpi\n        /* \"#utility.yul\":10552:10561   */\n      dup5\n        /* \"#utility.yul\":10547:10550   */\n      dup10\n        /* \"#utility.yul\":10543:10562   */\n      add\n        /* \"#utility.yul\":10537:10563   */\n      mload\n        /* \"#utility.yul\":10595:10643   */\n      tag_217\n        /* \"#utility.yul\":10637:10641   */\n      0x1f\n        /* \"#utility.yul\":10629:10635   */\n      dup10\n        /* \"#utility.yul\":10625:10642   */\n      and\n        /* \"#utility.yul\":10614:10623   */\n      dup3\n        /* \"#utility.yul\":10595:10643   */\n      tag_85\n      jump\t// in\n    tag_217:\n        /* \"#utility.yul\":10587:10593   */\n      dup4\n        /* \"#utility.yul\":10580:10644   */\n      sstore\n        /* \"#utility.yul\":10502:10658   */\n      pop\n        /* \"#utility.yul\":10479:10658   */\n    tag_216:\n        /* \"#utility.yul\":10704:10705   */\n      0x01\n        /* \"#utility.yul\":10700:10701   */\n      0x02\n        /* \"#utility.yul\":10692:10698   */\n      dup9\n        /* \"#utility.yul\":10688:10702   */\n      mul\n        /* \"#utility.yul\":10684:10706   */\n      add\n        /* \"#utility.yul\":10678:10682   */\n      dup9\n        /* \"#utility.yul\":10671:10707   */\n      sstore\n        /* \"#utility.yul\":10106:10717   */\n      pop\n      pop\n      pop\n        /* \"#utility.yul\":10069:10956   */\n    tag_208:\n      pop\n        /* \"#utility.yul\":9659:10962   */\n      pop\n      pop\n      pop\n        /* \"#utility.yul\":9567:10962   */\n      pop\n      pop\n      jump\t// out\n        /* \"#utility.yul\":10968:11116   */\n    tag_87:\n        /* \"#utility.yul\":11070:11081   */\n      0x00\n        /* \"#utility.yul\":11107:11110   */\n      dup2\n        /* \"#utility.yul\":11092:11110   */\n      swap1\n      pop\n        /* \"#utility.yul\":10968:11116   */\n      swap3\n      swap2\n      pop\n      pop\n      jump\t// out\n        /* \"#utility.yul\":11122:11512   */\n    tag_88:\n        /* \"#utility.yul\":11228:11231   */\n      0x00\n        /* \"#utility.yul\":11256:11295   */\n      tag_220\n        /* \"#utility.yul\":11289:11294   */\n      dup3\n        /* \"#utility.yul\":11256:11295   */\n      tag_67\n      jump\t// in\n    tag_220:\n        /* \"#utility.yul\":11311:11400   */\n      tag_221\n        /* \"#utility.yul\":11393:11399   */\n      dup2\n        /* \"#utility.yul\":11388:11391   */\n      dup6\n        /* \"#utility.yul\":11311:11400   */\n      tag_87\n      jump\t// in\n    tag_221:\n        /* \"#utility.yul\":11304:11400   */\n      swap4\n      pop\n        /* \"#utility.yul\":11409:11474   */\n      tag_222\n        /* \"#utility.yul\":11467:11473   */\n      dup2\n        /* \"#utility.yul\":11462:11465   */\n      dup6\n        /* \"#utility.yul\":11455:11459   */\n      0x20\n        /* \"#utility.yul\":11448:11453   */\n      dup7\n        /* \"#utility.yul\":11444:11460   */\n      add\n        /* \"#utility.yul\":11409:11474   */\n      tag_69\n      jump\t// in\n    tag_222:\n        /* \"#utility.yul\":11499:11505   */\n      dup1\n        /* \"#utility.yul\":11494:11497   */\n      dup5\n        /* \"#utility.yul\":11490:11506   */\n      add\n        /* \"#utility.yul\":11483:11506   */\n      swap2\n      pop\n        /* \"#utility.yul\":11232:11512   */\n      pop\n        /* \"#utility.yul\":11122:11512   */\n      swap3\n      swap2\n      pop\n      pop\n      jump\t// out\n        /* \"#utility.yul\":11518:11793   */\n    tag_41:\n        /* \"#utility.yul\":11650:11653   */\n      0x00\n        /* \"#utility.yul\":11672:11767   */\n      tag_224\n        /* \"#utility.yul\":11763:11766   */\n      dup3\n        /* \"#utility.yul\":11754:11760   */\n      dup5\n        /* \"#utility.yul\":11672:11767   */\n      tag_88\n      jump\t// in\n    tag_224:\n        /* \"#utility.yul\":11665:11767   */\n      swap2\n      pop\n        /* \"#utility.yul\":11784:11787   */\n      dup2\n        /* \"#utility.yul\":11777:11787   */\n      swap1\n      pop\n        /* \"#utility.yul\":11518:11793   */\n      swap3\n      swap2\n      pop\n      pop\n      jump\t// out\n\n    auxdata: 0xa2646970667358221220071c0c69cff429701130d979a12ad97a00df4508fd32a2426c42b39f7ddca9b764736f6c63430008120033\n}\n",
				"bytecode": {
					"linkReferences": {},
					"object": "608060405234801561001057600080fd5b5061096a806100206000396000f3fe608060405234801561001057600080fd5b50600436106100625760003560e01c80632e64cec114610067578063471f7cdf146100855780636057361d146100a35780638bab8dd5146100bf5780638f7d59b8146100ef5780639e7a13ad1461010b575b600080fd5b61006f61013c565b60405161007c91906102e1565b60405180910390f35b61008d610145565b60405161009a91906102e1565b60405180910390f35b6100bd60048036038101906100b8919061033c565b61014b565b005b6100d960048036038101906100d491906104af565b610155565b6040516100e691906102e1565b60405180910390f35b610109600480360381019061010491906104f8565b610183565b005b6101256004803603810190610120919061033c565b61020c565b6040516101339291906105d3565b60405180910390f35b60008054905090565b60005481565b8060008190555050565b6002818051602081018201805184825260208301602085012081835280955050505050506000915090505481565b600160405180604001604052808481526020018381525090806001815401808255809150506001900390600052602060002090600202016000909190919091506000820151816000015560208201518160010190816101e2919061080f565b505050816002826040516101f6919061091d565b9081526020016040518091039020819055505050565b6001818154811061021c57600080fd5b906000526020600020906002020160009150905080600001549080600101805461024590610632565b80601f016020809104026020016040519081016040528092919081815260200182805461027190610632565b80156102be5780601f10610293576101008083540402835291602001916102be565b820191906000526020600020905b8154815290600101906020018083116102a157829003601f168201915b5050505050905082565b6000819050919050565b6102db816102c8565b82525050565b60006020820190506102f660008301846102d2565b92915050565b6000604051905090565b600080fd5b600080fd5b610319816102c8565b811461032457600080fd5b50565b60008135905061033681610310565b92915050565b60006020828403121561035257610351610306565b5b600061036084828501610327565b91505092915050565b600080fd5b600080fd5b6000601f19601f8301169050919050565b7f4e487b7100000000000000000000000000000000000000000000000000000000600052604160045260246000fd5b6103bc82610373565b810181811067ffffffffffffffff821117156103db576103da610384565b5b80604052505050565b60006103ee6102fc565b90506103fa82826103b3565b919050565b600067ffffffffffffffff82111561041a57610419610384565b5b61042382610373565b9050602081019050919050565b82818337600083830152505050565b600061045261044d846103ff565b6103e4565b90508281526020810184848401111561046e5761046d61036e565b5b610479848285610430565b509392505050565b600082601f83011261049657610495610369565b5b81356104a684826020860161043f565b91505092915050565b6000602082840312156104c5576104c4610306565b5b600082013567ffffffffffffffff8111156104e3576104e261030b565b5b6104ef84828501610481565b91505092915050565b6000806040838503121561050f5761050e610306565b5b600061051d85828601610327565b925050602083013567ffffffffffffffff81111561053e5761053d61030b565b5b61054a85828601610481565b9150509250929050565b600081519050919050565b600082825260208201905092915050565b60005b8381101561058e578082015181840152602081019050610573565b60008484015250505050565b60006105a582610554565b6105af818561055f565b93506105bf818560208601610570565b6105c881610373565b840191505092915050565b60006040820190506105e860008301856102d2565b81810360208301526105fa818461059a565b90509392505050565b7f4e487b7100000000000000000000000000000000000000000000000000000000600052602260045260246000fd5b6000600282049050600182168061064a57607f821691505b60208210810361065d5761065c610603565b5b50919050565b60008190508160005260206000209050919050565b60006020601f8301049050919050565b600082821b905092915050565b6000600883026106c57fffffffffffffffffffffffffffffffffffffffffffffffffffffffffffffffff82610688565b6106cf8683610688565b95508019841693508086168417925050509392505050565b6000819050919050565b600061070c610707610702846102c8565b6106e7565b6102c8565b9050919050565b6000819050919050565b610726836106f1565b61073a61073282610713565b848454610695565b825550505050565b600090565b61074f610742565b61075a81848461071d565b505050565b5b8181101561077e57610773600082610747565b600181019050610760565b5050565b601f8211156107c35761079481610663565b61079d84610678565b810160208510156107ac578190505b6107c06107b885610678565b83018261075f565b50505b505050565b600082821c905092915050565b60006107e6600019846008026107c8565b1980831691505092915050565b60006107ff83836107d5565b9150826002028217905092915050565b61081882610554565b67ffffffffffffffff81111561083157610830610384565b5b61083b8254610632565b610846828285610782565b600060209050601f8311600181146108795760008415610867578287015190505b61087185826107f3565b8655506108d9565b601f19841661088786610663565b60005b828110156108af5784890151825560018201915060208501945060208101905061088a565b868310156108cc57848901516108c8601f8916826107d5565b8355505b6001600288020188555050505b505050505050565b600081905092915050565b60006108f782610554565b61090181856108e1565b9350610911818560208601610570565b80840191505092915050565b600061092982846108ec565b91508190509291505056fea2646970667358221220071c0c69cff429701130d979a12ad97a00df4508fd32a2426c42b39f7ddca9b764736f6c63430008120033",
					"opcodes": "PUSH1 0x80 PUSH1 0x40 MSTORE CALLVALUE DUP1 ISZERO PUSH2 0x10 JUMPI PUSH1 0x0 DUP1 REVERT JUMPDEST POP PUSH2 0x96A DUP1 PUSH2 0x20 PUSH1 0x0 CODECOPY PUSH1 0x0 RETURN INVALID PUSH1 0x80 PUSH1 0x40 MSTORE CALLVALUE DUP1 ISZERO PUSH2 0x10 JUMPI PUSH1 0x0 DUP1 REVERT JUMPDEST POP PUSH1 0x4 CALLDATASIZE LT PUSH2 0x62 JUMPI PUSH1 0x0 CALLDATALOAD PUSH1 0xE0 SHR DUP1 PUSH4 0x2E64CEC1 EQ PUSH2 0x67 JUMPI DUP1 PUSH4 0x471F7CDF EQ PUSH2 0x85 JUMPI DUP1 PUSH4 0x6057361D EQ PUSH2 0xA3 JUMPI DUP1 PUSH4 0x8BAB8DD5 EQ PUSH2 0xBF JUMPI DUP1 PUSH4 0x8F7D59B8 EQ PUSH2 0xEF JUMPI DUP1 PUSH4 0x9E7A13AD EQ PUSH2 0x10B JUMPI JUMPDEST PUSH1 0x0 DUP1 REVERT JUMPDEST PUSH2 0x6F PUSH2 0x13C JUMP JUMPDEST PUSH1 0x40 MLOAD PUSH2 0x7C SWAP2 SWAP1 PUSH2 0x2E1 JUMP JUMPDEST PUSH1 0x40 MLOAD DUP1 SWAP2 SUB SWAP1 RETURN JUMPDEST PUSH2 0x8D PUSH2 0x145 JUMP JUMPDEST PUSH1 0x40 MLOAD PUSH2 0x9A SWAP2 SWAP1 PUSH2 0x2E1 JUMP JUMPDEST PUSH1 0x40 MLOAD DUP1 SWAP2 SUB SWAP1 RETURN JUMPDEST PUSH2 0xBD PUSH1 0x4 DUP1 CALLDATASIZE SUB DUP2 ADD SWAP1 PUSH2 0xB8 SWAP2 SWAP1 PUSH2 0x33C JUMP JUMPDEST PUSH2 0x14B JUMP JUMPDEST STOP JUMPDEST PUSH2 0xD9 PUSH1 0x4 DUP1 CALLDATASIZE SUB DUP2 ADD SWAP1 PUSH2 0xD4 SWAP2 SWAP1 PUSH2 0x4AF JUMP JUMPDEST PUSH2 0x155 JUMP JUMPDEST PUSH1 0x40 MLOAD PUSH2 0xE6 SWAP2 SWAP1 PUSH2 0x2E1 JUMP JUMPDEST PUSH1 0x40 MLOAD DUP1 SWAP2 SUB SWAP1 RETURN JUMPDEST PUSH2 0x109 PUSH1 0x4 DUP1 CALLDATASIZE SUB DUP2 ADD SWAP1 PUSH2 0x104 SWAP2 SWAP1 PUSH2 0x4F8 JUMP JUMPDEST PUSH2 0x183 JUMP JUMPDEST STOP JUMPDEST PUSH2 0x125 PUSH1 0x4 DUP1 CALLDATASIZE SUB DUP2 ADD SWAP1 PUSH2 0x120 SWAP2 SWAP1 PUSH2 0x33C JUMP JUMPDEST PUSH2 0x20C JUMP JUMPDEST PUSH1 0x40 MLOAD PUSH2 0x133 SWAP3 SWAP2 SWAP1 PUSH2 0x5D3 JUMP JUMPDEST PUSH1 0x40 MLOAD DUP1 SWAP2 SUB SWAP1 RETURN JUMPDEST PUSH1 0x0 DUP1 SLOAD SWAP1 POP SWAP1 JUMP JUMPDEST PUSH1 0x0 SLOAD DUP2 JUMP JUMPDEST DUP1 PUSH1 0x0 DUP2 SWAP1 SSTORE POP POP JUMP JUMPDEST PUSH1 0x2 DUP2 DUP1 MLOAD PUSH1 0x20 DUP2 ADD DUP3 ADD DUP1 MLOAD DUP5 DUP3 MSTORE PUSH1 0x20 DUP4 ADD PUSH1 0x20 DUP6 ADD KECCAK256 DUP2 DUP4 MSTORE DUP1 SWAP6 POP POP POP POP POP POP PUSH1 0x0 SWAP2 POP SWAP1 POP SLOAD DUP2 JUMP JUMPDEST PUSH1 0x1 PUSH1 0x40 MLOAD DUP1 PUSH1 0x40 ADD PUSH1 0x40 MSTORE DUP1 DUP5 DUP2 MSTORE PUSH1 0x20 ADD DUP4 DUP2 MSTORE POP SWAP1 DUP1 PUSH1 0x1 DUP2 SLOAD ADD DUP1 DUP3 SSTORE DUP1 SWAP2 POP POP PUSH1 0x1 SWAP1 SUB SWAP1 PUSH1 0x0 MSTORE PUSH1 0x20 PUSH1 0x0 KECCAK256 SWAP1 PUSH1 0x2 MUL ADD PUSH1 0x0 SWAP1 SWAP2 SWAP1 SWAP2 SWAP1 SWAP2 POP PUSH1 0x0 DUP3 ADD MLOAD DUP2 PUSH1 0x0 ADD SSTORE PUSH1 0x20 DUP3 ADD MLOAD DUP2 PUSH1 0x1 ADD SWAP1 DUP2 PUSH2 0x1E2 SWAP2 SWAP1 PUSH2 0x80F JUMP JUMPDEST POP POP POP DUP2 PUSH1 0x2 DUP3 PUSH1 0x40 MLOAD PUSH2 0x1F6 SWAP2 SWAP1 PUSH2 0x91D JUMP JUMPDEST SWAP1 DUP2 MSTORE PUSH1 0x20 ADD PUSH1 0x40 MLOAD DUP1 SWAP2 SUB SWAP1 KECCAK256 DUP2 SWAP1 SSTORE POP POP POP JUMP JUMPDEST PUSH1 0x1 DUP2 DUP2 SLOAD DUP2 LT PUSH2 0x21C JUMPI PUSH1 0x0 DUP1 REVERT JUMPDEST SWAP1 PUSH1 0x0 MSTORE PUSH1 0x20 PUSH1 0x0 KECCAK256 SWAP1 PUSH1 0x2 MUL ADD PUSH1 0x0 SWAP2 POP SWAP1 POP DUP1 PUSH1 0x0 ADD SLOAD SWAP1 DUP1 PUSH1 0x1 ADD DUP1 SLOAD PUSH2 0x245 SWAP1 PUSH2 0x632 JUMP JUMPDEST DUP1 PUSH1 0x1F ADD PUSH1 0x20 DUP1 SWAP2 DIV MUL PUSH1 0x20 ADD PUSH1 0x40 MLOAD SWAP1 DUP2 ADD PUSH1 0x40 MSTORE DUP1 SWAP3 SWAP2 SWAP1 DUP2 DUP2 MSTORE PUSH1 0x20 ADD DUP3 DUP1 SLOAD PUSH2 0x271 SWAP1 PUSH2 0x632 JUMP JUMPDEST DUP1 ISZERO PUSH2 0x2BE JUMPI DUP1 PUSH1 0x1F LT PUSH2 0x293 JUMPI PUSH2 0x100 DUP1 DUP4 SLOAD DIV MUL DUP4 MSTORE SWAP2 PUSH1 0x20 ADD SWAP2 PUSH2 0x2BE JUMP JUMPDEST DUP3 ADD SWAP2 SWAP1 PUSH1 0x0 MSTORE PUSH1 0x20 PUSH1 0x0 KECCAK256 SWAP1 JUMPDEST DUP2 SLOAD DUP2 MSTORE SWAP1 PUSH1 0x1 ADD SWAP1 PUSH1 0x20 ADD DUP1 DUP4 GT PUSH2 0x2A1 JUMPI DUP3 SWAP1 SUB PUSH1 0x1F AND DUP3 ADD SWAP2 JUMPDEST POP POP POP POP POP SWAP1 POP DUP3 JUMP JUMPDEST PUSH1 0x0 DUP2 SWAP1 POP SWAP2 SWAP1 POP JUMP JUMPDEST PUSH2 0x2DB DUP2 PUSH2 0x2C8 JUMP JUMPDEST DUP3 MSTORE POP POP JUMP JUMPDEST PUSH1 0x0 PUSH1 0x20 DUP3 ADD SWAP1 POP PUSH2 0x2F6 PUSH1 0x0 DUP4 ADD DUP5 PUSH2 0x2D2 JUMP JUMPDEST SWAP3 SWAP2 POP POP JUMP JUMPDEST PUSH1 0x0 PUSH1 0x40 MLOAD SWAP1 POP SWAP1 JUMP JUMPDEST PUSH1 0x0 DUP1 REVERT JUMPDEST PUSH1 0x0 DUP1 REVERT JUMPDEST PUSH2 0x319 DUP2 PUSH2 0x2C8 JUMP JUMPDEST DUP2 EQ PUSH2 0x324 JUMPI PUSH1 0x0 DUP1 REVERT JUMPDEST POP JUMP JUMPDEST PUSH1 0x0 DUP2 CALLDATALOAD SWAP1 POP PUSH2 0x336 DUP2 PUSH2 0x310 JUMP JUMPDEST SWAP3 SWAP2 POP POP JUMP JUMPDEST PUSH1 0x0 PUSH1 0x20 DUP3 DUP5 SUB SLT ISZERO PUSH2 0x352 JUMPI PUSH2 0x351 PUSH2 0x306 JUMP JUMPDEST JUMPDEST PUSH1 0x0 PUSH2 0x360 DUP5 DUP3 DUP6 ADD PUSH2 0x327 JUMP JUMPDEST SWAP2 POP POP SWAP3 SWAP2 POP POP JUMP JUMPDEST PUSH1 0x0 DUP1 REVERT JUMPDEST PUSH1 0x0 DUP1 REVERT JUMPDEST PUSH1 0x0 PUSH1 0x1F NOT PUSH1 0x1F DUP4 ADD AND SWAP1 POP SWAP2 SWAP1 POP JUMP JUMPDEST PUSH32 0x4E487B7100000000000000000000000000000000000000000000000000000000 PUSH1 0x0 MSTORE PUSH1 0x41 PUSH1 0x4 MSTORE PUSH1 0x24 PUSH1 0x0 REVERT JUMPDEST PUSH2 0x3BC DUP3 PUSH2 0x373 JUMP JUMPDEST DUP2 ADD DUP2 DUP2 LT PUSH8 0xFFFFFFFFFFFFFFFF DUP3 GT OR ISZERO PUSH2 0x3DB JUMPI PUSH2 0x3DA PUSH2 0x384 JUMP JUMPDEST JUMPDEST DUP1 PUSH1 0x40 MSTORE POP POP POP JUMP JUMPDEST PUSH1 0x0 PUSH2 0x3EE PUSH2 0x2FC JUMP JUMPDEST SWAP1 POP PUSH2 0x3FA DUP3 DUP3 PUSH2 0x3B3 JUMP JUMPDEST SWAP2 SWAP1 POP JUMP JUMPDEST PUSH1 0x0 PUSH8 0xFFFFFFFFFFFFFFFF DUP3 GT ISZERO PUSH2 0x41A JUMPI PUSH2 0x419 PUSH2 0x384 JUMP JUMPDEST JUMPDEST PUSH2 0x423 DUP3 PUSH2 0x373 JUMP JUMPDEST SWAP1 POP PUSH1 0x20 DUP2 ADD SWAP1 POP SWAP2 SWAP1 POP JUMP JUMPDEST DUP3 DUP2 DUP4 CALLDATACOPY PUSH1 0x0 DUP4 DUP4 ADD MSTORE POP POP POP JUMP JUMPDEST PUSH1 0x0 PUSH2 0x452 PUSH2 0x44D DUP5 PUSH2 0x3FF JUMP JUMPDEST PUSH2 0x3E4 JUMP JUMPDEST SWAP1 POP DUP3 DUP2 MSTORE PUSH1 0x20 DUP2 ADD DUP5 DUP5 DUP5 ADD GT ISZERO PUSH2 0x46E JUMPI PUSH2 0x46D PUSH2 0x36E JUMP JUMPDEST JUMPDEST PUSH2 0x479 DUP5 DUP3 DUP6 PUSH2 0x430 JUMP JUMPDEST POP SWAP4 SWAP3 POP POP POP JUMP JUMPDEST PUSH1 0x0 DUP3 PUSH1 0x1F DUP4 ADD SLT PUSH2 0x496 JUMPI PUSH2 0x495 PUSH2 0x369 JUMP JUMPDEST JUMPDEST DUP2 CALLDATALOAD PUSH2 0x4A6 DUP5 DUP3 PUSH1 0x20 DUP7 ADD PUSH2 0x43F JUMP JUMPDEST SWAP2 POP POP SWAP3 SWAP2 POP POP JUMP JUMPDEST PUSH1 0x0 PUSH1 0x20 DUP3 DUP5 SUB SLT ISZERO PUSH2 0x4C5 JUMPI PUSH2 0x4C4 PUSH2 0x306 JUMP JUMPDEST JUMPDEST PUSH1 0x0 DUP3 ADD CALLDATALOAD PUSH8 0xFFFFFFFFFFFFFFFF DUP2 GT ISZERO PUSH2 0x4E3 JUMPI PUSH2 0x4E2 PUSH2 0x30B JUMP JUMPDEST JUMPDEST PUSH2 0x4EF DUP5 DUP3 DUP6 ADD PUSH2 0x481 JUMP JUMPDEST SWAP2 POP POP SWAP3 SWAP2 POP POP JUMP JUMPDEST PUSH1 0x0 DUP1 PUSH1 0x40 DUP4 DUP6 SUB SLT ISZERO PUSH2 0x50F JUMPI PUSH2 0x50E PUSH2 0x306 JUMP JUMPDEST JUMPDEST PUSH1 0x0 PUSH2 0x51D DUP6 DUP3 DUP7 ADD PUSH2 0x327 JUMP JUMPDEST SWAP3 POP POP PUSH1 0x20 DUP4 ADD CALLDATALOAD PUSH8 0xFFFFFFFFFFFFFFFF DUP2 GT ISZERO PUSH2 0x53E JUMPI PUSH2 0x53D PUSH2 0x30B JUMP JUMPDEST JUMPDEST PUSH2 0x54A DUP6 DUP3 DUP7 ADD PUSH2 0x481 JUMP JUMPDEST SWAP2 POP POP SWAP3 POP SWAP3 SWAP1 POP JUMP JUMPDEST PUSH1 0x0 DUP2 MLOAD SWAP1 POP SWAP2 SWAP1 POP JUMP JUMPDEST PUSH1 0x0 DUP3 DUP3 MSTORE PUSH1 0x20 DUP3 ADD SWAP1 POP SWAP3 SWAP2 POP POP JUMP JUMPDEST PUSH1 0x0 JUMPDEST DUP4 DUP2 LT ISZERO PUSH2 0x58E JUMPI DUP1 DUP3 ADD MLOAD DUP2 DUP5 ADD MSTORE PUSH1 0x20 DUP2 ADD SWAP1 POP PUSH2 0x573 JUMP JUMPDEST PUSH1 0x0 DUP5 DUP5 ADD MSTORE POP POP POP POP JUMP JUMPDEST PUSH1 0x0 PUSH2 0x5A5 DUP3 PUSH2 0x554 JUMP JUMPDEST PUSH2 0x5AF DUP2 DUP6 PUSH2 0x55F JUMP JUMPDEST SWAP4 POP PUSH2 0x5BF DUP2 DUP6 PUSH1 0x20 DUP7 ADD PUSH2 0x570 JUMP JUMPDEST PUSH2 0x5C8 DUP2 PUSH2 0x373 JUMP JUMPDEST DUP5 ADD SWAP2 POP POP SWAP3 SWAP2 POP POP JUMP JUMPDEST PUSH1 0x0 PUSH1 0x40 DUP3 ADD SWAP1 POP PUSH2 0x5E8 PUSH1 0x0 DUP4 ADD DUP6 PUSH2 0x2D2 JUMP JUMPDEST DUP2 DUP2 SUB PUSH1 0x20 DUP4 ADD MSTORE PUSH2 0x5FA DUP2 DUP5 PUSH2 0x59A JUMP JUMPDEST SWAP1 POP SWAP4 SWAP3 POP POP POP JUMP JUMPDEST PUSH32 0x4E487B7100000000000000000000000000000000000000000000000000000000 PUSH1 0x0 MSTORE PUSH1 0x22 PUSH1 0x4 MSTORE PUSH1 0x24 PUSH1 0x0 REVERT JUMPDEST PUSH1 0x0 PUSH1 0x2 DUP3 DIV SWAP1 POP PUSH1 0x1 DUP3 AND DUP1 PUSH2 0x64A JUMPI PUSH1 0x7F DUP3 AND SWAP2 POP JUMPDEST PUSH1 0x20 DUP3 LT DUP2 SUB PUSH2 0x65D JUMPI PUSH2 0x65C PUSH2 0x603 JUMP JUMPDEST JUMPDEST POP SWAP2 SWAP1 POP JUMP JUMPDEST PUSH1 0x0 DUP2 SWAP1 POP DUP2 PUSH1 0x0 MSTORE PUSH1 0x20 PUSH1 0x0 KECCAK256 SWAP1 POP SWAP2 SWAP1 POP JUMP JUMPDEST PUSH1 0x0 PUSH1 0x20 PUSH1 0x1F DUP4 ADD DIV SWAP1 POP SWAP2 SWAP1 POP JUMP JUMPDEST PUSH1 0x0 DUP3 DUP3 SHL SWAP1 POP SWAP3 SWAP2 POP POP JUMP JUMPDEST PUSH1 0x0 PUSH1 0x8 DUP4 MUL PUSH2 0x6C5 PUSH32 0xFFFFFFFFFFFFFFFFFFFFFFFFFFFFFFFFFFFFFFFFFFFFFFFFFFFFFFFFFFFFFFFF DUP3 PUSH2 0x688 JUMP JUMPDEST PUSH2 0x6CF DUP7 DUP4 PUSH2 0x688 JUMP JUMPDEST SWAP6 POP DUP1 NOT DUP5 AND SWAP4 POP DUP1 DUP7 AND DUP5 OR SWAP3 POP POP POP SWAP4 SWAP3 POP POP POP JUMP JUMPDEST PUSH1 0x0 DUP2 SWAP1 POP SWAP2 SWAP1 POP JUMP JUMPDEST PUSH1 0x0 PUSH2 0x70C PUSH2 0x707 PUSH2 0x702 DUP5 PUSH2 0x2C8 JUMP JUMPDEST PUSH2 0x6E7 JUMP JUMPDEST PUSH2 0x2C8 JUMP JUMPDEST SWAP1 POP SWAP2 SWAP1 POP JUMP JUMPDEST PUSH1 0x0 DUP2 SWAP1 POP SWAP2 SWAP1 POP JUMP JUMPDEST PUSH2 0x726 DUP4 PUSH2 0x6F1 JUMP JUMPDEST PUSH2 0x73A PUSH2 0x732 DUP3 PUSH2 0x713 JUMP JUMPDEST DUP5 DUP5 SLOAD PUSH2 0x695 JUMP JUMPDEST DUP3 SSTORE POP POP POP POP JUMP JUMPDEST PUSH1 0x0 SWAP1 JUMP JUMPDEST PUSH2 0x74F PUSH2 0x742 JUMP JUMPDEST PUSH2 0x75A DUP2 DUP5 DUP5 PUSH2 0x71D JUMP JUMPDEST POP POP POP JUMP JUMPDEST JUMPDEST DUP2 DUP2 LT ISZERO PUSH2 0x77E JUMPI PUSH2 0x773 PUSH1 0x0 DUP3 PUSH2 0x747 JUMP JUMPDEST PUSH1 0x1 DUP2 ADD SWAP1 POP PUSH2 0x760 JUMP JUMPDEST POP POP JUMP JUMPDEST PUSH1 0x1F DUP3 GT ISZERO PUSH2 0x7C3 JUMPI PUSH2 0x794 DUP2 PUSH2 0x663 JUMP JUMPDEST PUSH2 0x79D DUP5 PUSH2 0x678 JUMP JUMPDEST DUP2 ADD PUSH1 0x20 DUP6 LT ISZERO PUSH2 0x7AC JUMPI DUP2 SWAP1 POP JUMPDEST PUSH2 0x7C0 PUSH2 0x7B8 DUP6 PUSH2 0x678 JUMP JUMPDEST DUP4 ADD DUP3 PUSH2 0x75F JUMP JUMPDEST POP POP JUMPDEST POP POP POP JUMP JUMPDEST PUSH1 0x0 DUP3 DUP3 SHR SWAP1 POP SWAP3 SWAP2 POP POP JUMP JUMPDEST PUSH1 0x0 PUSH2 0x7E6 PUSH1 0x0 NOT DUP5 PUSH1 0x8 MUL PUSH2 0x7C8 JUMP JUMPDEST NOT DUP1 DUP4 AND SWAP2 POP POP SWAP3 SWAP2 POP POP JUMP JUMPDEST PUSH1 0x0 PUSH2 0x7FF DUP4 DUP4 PUSH2 0x7D5 JUMP JUMPDEST SWAP2 POP DUP3 PUSH1 0x2 MUL DUP3 OR SWAP1 POP SWAP3 SWAP2 POP POP JUMP JUMPDEST PUSH2 0x818 DUP3 PUSH2 0x554 JUMP JUMPDEST PUSH8 0xFFFFFFFFFFFFFFFF DUP2 GT ISZERO PUSH2 0x831 JUMPI PUSH2 0x830 PUSH2 0x384 JUMP JUMPDEST JUMPDEST PUSH2 0x83B DUP3 SLOAD PUSH2 0x632 JUMP JUMPDEST PUSH2 0x846 DUP3 DUP3 DUP6 PUSH2 0x782 JUMP JUMPDEST PUSH1 0x0 PUSH1 0x20 SWAP1 POP PUSH1 0x1F DUP4 GT PUSH1 0x1 DUP2 EQ PUSH2 0x879 JUMPI PUSH1 0x0 DUP5 ISZERO PUSH2 0x867 JUMPI DUP3 DUP8 ADD MLOAD SWAP1 POP JUMPDEST PUSH2 0x871 DUP6 DUP3 PUSH2 0x7F3 JUMP JUMPDEST DUP7 SSTORE POP PUSH2 0x8D9 JUMP JUMPDEST PUSH1 0x1F NOT DUP5 AND PUSH2 0x887 DUP7 PUSH2 0x663 JUMP JUMPDEST PUSH1 0x0 JUMPDEST DUP3 DUP2 LT ISZERO PUSH2 0x8AF JUMPI DUP5 DUP10 ADD MLOAD DUP3 SSTORE PUSH1 0x1 DUP3 ADD SWAP2 POP PUSH1 0x20 DUP6 ADD SWAP5 POP PUSH1 0x20 DUP2 ADD SWAP1 POP PUSH2 0x88A JUMP JUMPDEST DUP7 DUP4 LT ISZERO PUSH2 0x8CC JUMPI DUP5 DUP10 ADD MLOAD PUSH2 0x8C8 PUSH1 0x1F DUP10 AND DUP3 PUSH2 0x7D5 JUMP JUMPDEST DUP4 SSTORE POP JUMPDEST PUSH1 0x1 PUSH1 0x2 DUP9 MUL ADD DUP9 SSTORE POP POP POP JUMPDEST POP POP POP POP POP POP JUMP JUMPDEST PUSH1 0x0 DUP2 SWAP1 POP SWAP3 SWAP2 POP POP JUMP JUMPDEST PUSH1 0x0 PUSH2 0x8F7 DUP3 PUSH2 0x554 JUMP JUMPDEST PUSH2 0x901 DUP2 DUP6 PUSH2 0x8E1 JUMP JUMPDEST SWAP4 POP PUSH2 0x911 DUP2 DUP6 PUSH1 0x20 DUP7 ADD PUSH2 0x570 JUMP JUMPDEST DUP1 DUP5 ADD SWAP2 POP POP SWAP3 SWAP2 POP POP JUMP JUMPDEST PUSH1 0x0 PUSH2 0x929 DUP3 DUP5 PUSH2 0x8EC JUMP JUMPDEST SWAP2 POP DUP2 SWAP1 POP SWAP3 SWAP2 POP POP JUMP INVALID LOG2 PUSH5 0x6970667358 0x22 SLT KECCAK256 SMOD SHR 0xC PUSH10 0xCFF429701130D979A12A 0xD9 PUSH27 0xDF4508FD32A2426C42B39F7DDCA9B764736F6C63430008120033 "
				},
				"gasEstimates": {
					"creation": {
						"codeDepositCost": "482000",
						"executionCost": "518",
						"totalCost": "482518"
					},
					"external": {
						"addPeople(uint256,string)": "infinite",
						"favoriteNumber()": "2429",
						"nameToFavoriteNumber(string)": "infinite",
						"people(uint256)": "infinite",
						"retrieve()": "2415",
						"store(uint256)": "22542"
					}
				},
				"methodIdentifiers": {
					"addPeople(uint256,string)": "8f7d59b8",
					"favoriteNumber()": "471f7cdf",
					"nameToFavoriteNumber(string)": "8bab8dd5",
					"people(uint256)": "9e7a13ad",
					"retrieve()": "2e64cec1",
					"store(uint256)": "6057361d"
				}
			},
			"storageLayout": {
				"storage": [
					{
						"astId": 3,
						"contract": "contracts/SimpleStorage.sol:SimpleStorage",
						"label": "favoriteNumber",
						"offset": 0,
						"slot": "0",
						"type": "t_uint256"
					},
					{
						"astId": 12,
						"contract": "contracts/SimpleStorage.sol:SimpleStorage",
						"label": "people",
						"offset": 0,
						"slot": "1",
						"type": "t_array(t_struct(People)8_storage)dyn_storage"
					},
					{
						"astId": 16,
						"contract": "contracts/SimpleStorage.sol:SimpleStorage",
						"label": "nameToFavoriteNumber",
						"offset": 0,
						"slot": "2",
						"type": "t_mapping(t_string_memory_ptr,t_uint256)"
					}
				],
				"types": {
					"t_array(t_struct(People)8_storage)dyn_storage": {
						"base": "t_struct(People)8_storage",
						"encoding": "dynamic_array",
						"label": "struct SimpleStorage.People[]",
						"numberOfBytes": "32"
					},
					"t_mapping(t_string_memory_ptr,t_uint256)": {
						"encoding": "mapping",
						"key": "t_string_memory_ptr",
						"label": "mapping(string => uint256)",
						"numberOfBytes": "32",
						"value": "t_uint256"
					},
					"t_string_memory_ptr": {
						"encoding": "bytes",
						"label": "string",
						"numberOfBytes": "32"
					},
					"t_string_storage": {
						"encoding": "bytes",
						"label": "string",
						"numberOfBytes": "32"
					},
					"t_struct(People)8_storage": {
						"encoding": "inplace",
						"label": "struct SimpleStorage.People",
						"members": [
							{
								"astId": 5,
								"contract": "contracts/SimpleStorage.sol:SimpleStorage",
								"label": "favoriteNumber",
								"offset": 0,
								"slot": "0",
								"type": "t_uint256"
							},
							{
								"astId": 7,
								"contract": "contracts/SimpleStorage.sol:SimpleStorage",
								"label": "name",
								"offset": 0,
								"slot": "1",
								"type": "t_string_storage"
							}
						],
						"numberOfBytes": "64"
					},
					"t_uint256": {
						"encoding": "inplace",
						"label": "uint256",
						"numberOfBytes": "32"
					}
				}
			},
			"userdoc": {
				"kind": "user",
				"methods": {},
				"version": 1
			}
		}
	}
}