{
	"contracts/PriceConsumerV3.sol": {
		"PriceConsumerV3": {
			"abi": [
				{
					"inputs": [],
					"stateMutability": "nonpayable",
					"type": "constructor"
				},
				{
					"inputs": [],
					"name": "getDecimals",
					"outputs": [
						{
							"internalType": "uint8",
							"name": "",
							"type": "uint8"
						}
					],
					"stateMutability": "view",
					"type": "function"
				},
				{
					"inputs": [],
					"name": "getLatestPrice",
					"outputs": [
						{
							"internalType": "int256",
							"name": "",
							"type": "int256"
						}
					],
					"stateMutability": "view",
					"type": "function"
				}
			],
			"devdoc": {
				"kind": "dev",
				"methods": {},
				"version": 1
			},
			"evm": {
				"assembly": "    /* \"contracts/PriceConsumerV3.sol\":136:842  contract PriceConsumerV3 {... */\n  mstore(0x40, 0x80)\n    /* \"contracts/PriceConsumerV3.sol\":324:431  constructor(){... */\n  callvalue\n  dup1\n  iszero\n  tag_1\n  jumpi\n  0x00\n  dup1\n  revert\ntag_1:\n  pop\n    /* \"contracts/PriceConsumerV3.sol\":381:423  0x694AA1769357215DE4FAC081bf1f309aDC325306 */\n  0x694aa1769357215de4fac081bf1f309adc325306\n    /* \"contracts/PriceConsumerV3.sol\":347:356  priceFeed */\n  0x00\n  dup1\n    /* \"contracts/PriceConsumerV3.sol\":347:424  priceFeed = AggregatorV3Interface(0x694AA1769357215DE4FAC081bf1f309aDC325306) */\n  0x0100\n  exp\n  dup2\n  sload\n  dup2\n  0xffffffffffffffffffffffffffffffffffffffff\n  mul\n  not\n  and\n  swap1\n  dup4\n  0xffffffffffffffffffffffffffffffffffffffff\n  and\n  mul\n  or\n  swap1\n  sstore\n  pop\n    /* \"contracts/PriceConsumerV3.sol\":136:842  contract PriceConsumerV3 {... */\n  dataSize(sub_0)\n  dup1\n  dataOffset(sub_0)\n  0x00\n  codecopy\n  0x00\n  return\nstop\n\nsub_0: assembly {\n        /* \"contracts/PriceConsumerV3.sol\":136:842  contract PriceConsumerV3 {... */\n      mstore(0x40, 0x80)\n      callvalue\n      dup1\n      iszero\n      tag_1\n      jumpi\n      0x00\n      dup1\n      revert\n    tag_1:\n      pop\n      jumpi(tag_2, lt(calldatasize, 0x04))\n      shr(0xe0, calldataload(0x00))\n      dup1\n      0x8e15f473\n      eq\n      tag_3\n      jumpi\n      dup1\n      0xf0141d84\n      eq\n      tag_4\n      jumpi\n    tag_2:\n      0x00\n      dup1\n      revert\n        /* \"contracts/PriceConsumerV3.sol\":437:696  function getLatestPrice() public view returns(int256) {... */\n    tag_3:\n      tag_5\n      tag_6\n      jump\t// in\n    tag_5:\n      mload(0x40)\n      tag_7\n      swap2\n      swap1\n      tag_8\n      jump\t// in\n    tag_7:\n      mload(0x40)\n      dup1\n      swap2\n      sub\n      swap1\n      return\n        /* \"contracts/PriceConsumerV3.sol\":702:840  function getDecimals() public view returns(uint8){... */\n    tag_4:\n      tag_9\n      tag_10\n      jump\t// in\n    tag_9:\n      mload(0x40)\n      tag_11\n      swap2\n      swap1\n      tag_12\n      jump\t// in\n    tag_11:\n      mload(0x40)\n      dup1\n      swap2\n      sub\n      swap1\n      return\n        /* \"contracts/PriceConsumerV3.sol\":437:696  function getLatestPrice() public view returns(int256) {... */\n    tag_6:\n        /* \"contracts/PriceConsumerV3.sol\":483:489  int256 */\n      0x00\n        /* \"contracts/PriceConsumerV3.sol\":510:524  uint80 roundId */\n      dup1\n        /* \"contracts/PriceConsumerV3.sol\":534:547  int256 answer */\n      0x00\n        /* \"contracts/PriceConsumerV3.sol\":557:574  uint256 startedAt */\n      dup1\n        /* \"contracts/PriceConsumerV3.sol\":584:601  uint256 updatedAt */\n      0x00\n        /* \"contracts/PriceConsumerV3.sol\":611:633  uint80 answeredInRound */\n      dup1\n        /* \"contracts/PriceConsumerV3.sol\":642:651  priceFeed */\n      0x00\n      dup1\n      sload\n      swap1\n      0x0100\n      exp\n      swap1\n      div\n      0xffffffffffffffffffffffffffffffffffffffff\n      and\n        /* \"contracts/PriceConsumerV3.sol\":642:667  priceFeed.latestRoundData */\n      0xffffffffffffffffffffffffffffffffffffffff\n      and\n      0xfeaf968c\n        /* \"contracts/PriceConsumerV3.sol\":642:669  priceFeed.latestRoundData() */\n      mload(0x40)\n      dup2\n      0xffffffff\n      and\n      0xe0\n      shl\n      dup2\n      mstore\n      0x04\n      add\n      0xa0\n      mload(0x40)\n      dup1\n      dup4\n      sub\n      dup2\n      dup7\n      gas\n      staticcall\n      iszero\n      dup1\n      iszero\n      tag_15\n      jumpi\n      returndatasize\n      0x00\n      dup1\n      returndatacopy\n      revert(0x00, returndatasize)\n    tag_15:\n      pop\n      pop\n      pop\n      pop\n      mload(0x40)\n      returndatasize\n      not(0x1f)\n      0x1f\n      dup3\n      add\n      and\n      dup3\n      add\n      dup1\n      0x40\n      mstore\n      pop\n      dup2\n      add\n      swap1\n      tag_16\n      swap2\n      swap1\n      tag_17\n      jump\t// in\n    tag_16:\n        /* \"contracts/PriceConsumerV3.sol\":500:669  (... */\n      swap5\n      pop\n      swap5\n      pop\n      swap5\n      pop\n      swap5\n      pop\n      swap5\n      pop\n        /* \"contracts/PriceConsumerV3.sol\":683:689  answer */\n      dup4\n        /* \"contracts/PriceConsumerV3.sol\":676:689  return answer */\n      swap6\n      pop\n      pop\n      pop\n      pop\n      pop\n      pop\n        /* \"contracts/PriceConsumerV3.sol\":437:696  function getLatestPrice() public view returns(int256) {... */\n      swap1\n      jump\t// out\n        /* \"contracts/PriceConsumerV3.sol\":702:840  function getDecimals() public view returns(uint8){... */\n    tag_10:\n        /* \"contracts/PriceConsumerV3.sol\":745:750  uint8 */\n      0x00\n        /* \"contracts/PriceConsumerV3.sol\":761:780  uint8 decimalPlaces */\n      dup1\n        /* \"contracts/PriceConsumerV3.sol\":783:792  priceFeed */\n      0x00\n      dup1\n      sload\n      swap1\n      0x0100\n      exp\n      swap1\n      div\n      0xffffffffffffffffffffffffffffffffffffffff\n      and\n        /* \"contracts/PriceConsumerV3.sol\":783:801  priceFeed.decimals */\n      0xffffffffffffffffffffffffffffffffffffffff\n      and\n      0x313ce567\n        /* \"contracts/PriceConsumerV3.sol\":783:803  priceFeed.decimals() */\n      mload(0x40)\n      dup2\n      0xffffffff\n      and\n      0xe0\n      shl\n      dup2\n      mstore\n      0x04\n      add\n      0x20\n      mload(0x40)\n      dup1\n      dup4\n      sub\n      dup2\n      dup7\n      gas\n      staticcall\n      iszero\n      dup1\n      iszero\n      tag_20\n      jumpi\n      returndatasize\n      0x00\n      dup1\n      returndatacopy\n      revert(0x00, returndatasize)\n    tag_20:\n      pop\n      pop\n      pop\n      pop\n      mload(0x40)\n      returndatasize\n      not(0x1f)\n      0x1f\n      dup3\n      add\n      and\n      dup3\n      add\n      dup1\n      0x40\n      mstore\n      pop\n      dup2\n      add\n      swap1\n      tag_21\n      swap2\n      swap1\n      tag_22\n      jump\t// in\n    tag_21:\n        /* \"contracts/PriceConsumerV3.sol\":761:803  uint8 decimalPlaces = priceFeed.decimals() */\n      swap1\n      pop\n        /* \"contracts/PriceConsumerV3.sol\":820:833  decimalPlaces */\n      dup1\n        /* \"contracts/PriceConsumerV3.sol\":813:833  return decimalPlaces */\n      swap2\n      pop\n      pop\n        /* \"contracts/PriceConsumerV3.sol\":702:840  function getDecimals() public view returns(uint8){... */\n      swap1\n      jump\t// out\n        /* \"#utility.yul\":7:83   */\n    tag_23:\n        /* \"#utility.yul\":43:50   */\n      0x00\n        /* \"#utility.yul\":72:77   */\n      dup2\n        /* \"#utility.yul\":61:77   */\n      swap1\n      pop\n        /* \"#utility.yul\":7:83   */\n      swap2\n      swap1\n      pop\n      jump\t// out\n        /* \"#utility.yul\":89:204   */\n    tag_24:\n        /* \"#utility.yul\":174:197   */\n      tag_43\n        /* \"#utility.yul\":191:196   */\n      dup2\n        /* \"#utility.yul\":174:197   */\n      tag_23\n      jump\t// in\n    tag_43:\n        /* \"#utility.yul\":169:172   */\n      dup3\n        /* \"#utility.yul\":162:198   */\n      mstore\n        /* \"#utility.yul\":89:204   */\n      pop\n      pop\n      jump\t// out\n        /* \"#utility.yul\":210:428   */\n    tag_8:\n        /* \"#utility.yul\":301:305   */\n      0x00\n        /* \"#utility.yul\":339:341   */\n      0x20\n        /* \"#utility.yul\":328:337   */\n      dup3\n        /* \"#utility.yul\":324:342   */\n      add\n        /* \"#utility.yul\":316:342   */\n      swap1\n      pop\n        /* \"#utility.yul\":352:421   */\n      tag_45\n        /* \"#utility.yul\":418:419   */\n      0x00\n        /* \"#utility.yul\":407:416   */\n      dup4\n        /* \"#utility.yul\":403:420   */\n      add\n        /* \"#utility.yul\":394:400   */\n      dup5\n        /* \"#utility.yul\":352:421   */\n      tag_24\n      jump\t// in\n    tag_45:\n        /* \"#utility.yul\":210:428   */\n      swap3\n      swap2\n      pop\n      pop\n      jump\t// out\n        /* \"#utility.yul\":434:520   */\n    tag_25:\n        /* \"#utility.yul\":469:476   */\n      0x00\n        /* \"#utility.yul\":509:513   */\n      0xff\n        /* \"#utility.yul\":502:507   */\n      dup3\n        /* \"#utility.yul\":498:514   */\n      and\n        /* \"#utility.yul\":487:514   */\n      swap1\n      pop\n        /* \"#utility.yul\":434:520   */\n      swap2\n      swap1\n      pop\n      jump\t// out\n        /* \"#utility.yul\":526:638   */\n    tag_26:\n        /* \"#utility.yul\":609:631   */\n      tag_48\n        /* \"#utility.yul\":625:630   */\n      dup2\n        /* \"#utility.yul\":609:631   */\n      tag_25\n      jump\t// in\n    tag_48:\n        /* \"#utility.yul\":604:607   */\n      dup3\n        /* \"#utility.yul\":597:632   */\n      mstore\n        /* \"#utility.yul\":526:638   */\n      pop\n      pop\n      jump\t// out\n        /* \"#utility.yul\":644:858   */\n    tag_12:\n        /* \"#utility.yul\":733:737   */\n      0x00\n        /* \"#utility.yul\":771:773   */\n      0x20\n        /* \"#utility.yul\":760:769   */\n      dup3\n        /* \"#utility.yul\":756:774   */\n      add\n        /* \"#utility.yul\":748:774   */\n      swap1\n      pop\n        /* \"#utility.yul\":784:851   */\n      tag_50\n        /* \"#utility.yul\":848:849   */\n      0x00\n        /* \"#utility.yul\":837:846   */\n      dup4\n        /* \"#utility.yul\":833:850   */\n      add\n        /* \"#utility.yul\":824:830   */\n      dup5\n        /* \"#utility.yul\":784:851   */\n      tag_26\n      jump\t// in\n    tag_50:\n        /* \"#utility.yul\":644:858   */\n      swap3\n      swap2\n      pop\n      pop\n      jump\t// out\n        /* \"#utility.yul\":945:1062   */\n    tag_28:\n        /* \"#utility.yul\":1054:1055   */\n      0x00\n        /* \"#utility.yul\":1051:1052   */\n      dup1\n        /* \"#utility.yul\":1044:1056   */\n      revert\n        /* \"#utility.yul\":1191:1296   */\n    tag_30:\n        /* \"#utility.yul\":1227:1234   */\n      0x00\n        /* \"#utility.yul\":1267:1289   */\n      0xffffffffffffffffffff\n        /* \"#utility.yul\":1260:1265   */\n      dup3\n        /* \"#utility.yul\":1256:1290   */\n      and\n        /* \"#utility.yul\":1245:1290   */\n      swap1\n      pop\n        /* \"#utility.yul\":1191:1296   */\n      swap2\n      swap1\n      pop\n      jump\t// out\n        /* \"#utility.yul\":1302:1422   */\n    tag_31:\n        /* \"#utility.yul\":1374:1397   */\n      tag_56\n        /* \"#utility.yul\":1391:1396   */\n      dup2\n        /* \"#utility.yul\":1374:1397   */\n      tag_30\n      jump\t// in\n    tag_56:\n        /* \"#utility.yul\":1367:1372   */\n      dup2\n        /* \"#utility.yul\":1364:1398   */\n      eq\n        /* \"#utility.yul\":1354:1416   */\n      tag_57\n      jumpi\n        /* \"#utility.yul\":1412:1413   */\n      0x00\n        /* \"#utility.yul\":1409:1410   */\n      dup1\n        /* \"#utility.yul\":1402:1414   */\n      revert\n        /* \"#utility.yul\":1354:1416   */\n    tag_57:\n        /* \"#utility.yul\":1302:1422   */\n      pop\n      jump\t// out\n        /* \"#utility.yul\":1428:1569   */\n    tag_32:\n        /* \"#utility.yul\":1484:1489   */\n      0x00\n        /* \"#utility.yul\":1515:1521   */\n      dup2\n        /* \"#utility.yul\":1509:1522   */\n      mload\n        /* \"#utility.yul\":1500:1522   */\n      swap1\n      pop\n        /* \"#utility.yul\":1531:1563   */\n      tag_59\n        /* \"#utility.yul\":1557:1562   */\n      dup2\n        /* \"#utility.yul\":1531:1563   */\n      tag_31\n      jump\t// in\n    tag_59:\n        /* \"#utility.yul\":1428:1569   */\n      swap3\n      swap2\n      pop\n      pop\n      jump\t// out\n        /* \"#utility.yul\":1575:1695   */\n    tag_33:\n        /* \"#utility.yul\":1647:1670   */\n      tag_61\n        /* \"#utility.yul\":1664:1669   */\n      dup2\n        /* \"#utility.yul\":1647:1670   */\n      tag_23\n      jump\t// in\n    tag_61:\n        /* \"#utility.yul\":1640:1645   */\n      dup2\n        /* \"#utility.yul\":1637:1671   */\n      eq\n        /* \"#utility.yul\":1627:1689   */\n      tag_62\n      jumpi\n        /* \"#utility.yul\":1685:1686   */\n      0x00\n        /* \"#utility.yul\":1682:1683   */\n      dup1\n        /* \"#utility.yul\":1675:1687   */\n      revert\n        /* \"#utility.yul\":1627:1689   */\n    tag_62:\n        /* \"#utility.yul\":1575:1695   */\n      pop\n      jump\t// out\n        /* \"#utility.yul\":1701:1842   */\n    tag_34:\n        /* \"#utility.yul\":1757:1762   */\n      0x00\n        /* \"#utility.yul\":1788:1794   */\n      dup2\n        /* \"#utility.yul\":1782:1795   */\n      mload\n        /* \"#utility.yul\":1773:1795   */\n      swap1\n      pop\n        /* \"#utility.yul\":1804:1836   */\n      tag_64\n        /* \"#utility.yul\":1830:1835   */\n      dup2\n        /* \"#utility.yul\":1804:1836   */\n      tag_33\n      jump\t// in\n    tag_64:\n        /* \"#utility.yul\":1701:1842   */\n      swap3\n      swap2\n      pop\n      pop\n      jump\t// out\n        /* \"#utility.yul\":1848:1925   */\n    tag_35:\n        /* \"#utility.yul\":1885:1892   */\n      0x00\n        /* \"#utility.yul\":1914:1919   */\n      dup2\n        /* \"#utility.yul\":1903:1919   */\n      swap1\n      pop\n        /* \"#utility.yul\":1848:1925   */\n      swap2\n      swap1\n      pop\n      jump\t// out\n        /* \"#utility.yul\":1931:2053   */\n    tag_36:\n        /* \"#utility.yul\":2004:2028   */\n      tag_67\n        /* \"#utility.yul\":2022:2027   */\n      dup2\n        /* \"#utility.yul\":2004:2028   */\n      tag_35\n      jump\t// in\n    tag_67:\n        /* \"#utility.yul\":1997:2002   */\n      dup2\n        /* \"#utility.yul\":1994:2029   */\n      eq\n        /* \"#utility.yul\":1984:2047   */\n      tag_68\n      jumpi\n        /* \"#utility.yul\":2043:2044   */\n      0x00\n        /* \"#utility.yul\":2040:2041   */\n      dup1\n        /* \"#utility.yul\":2033:2045   */\n      revert\n        /* \"#utility.yul\":1984:2047   */\n    tag_68:\n        /* \"#utility.yul\":1931:2053   */\n      pop\n      jump\t// out\n        /* \"#utility.yul\":2059:2202   */\n    tag_37:\n        /* \"#utility.yul\":2116:2121   */\n      0x00\n        /* \"#utility.yul\":2147:2153   */\n      dup2\n        /* \"#utility.yul\":2141:2154   */\n      mload\n        /* \"#utility.yul\":2132:2154   */\n      swap1\n      pop\n        /* \"#utility.yul\":2163:2196   */\n      tag_70\n        /* \"#utility.yul\":2190:2195   */\n      dup2\n        /* \"#utility.yul\":2163:2196   */\n      tag_36\n      jump\t// in\n    tag_70:\n        /* \"#utility.yul\":2059:2202   */\n      swap3\n      swap2\n      pop\n      pop\n      jump\t// out\n        /* \"#utility.yul\":2208:3179   */\n    tag_17:\n        /* \"#utility.yul\":2311:2317   */\n      0x00\n        /* \"#utility.yul\":2319:2325   */\n      dup1\n        /* \"#utility.yul\":2327:2333   */\n      0x00\n        /* \"#utility.yul\":2335:2341   */\n      dup1\n        /* \"#utility.yul\":2343:2349   */\n      0x00\n        /* \"#utility.yul\":2392:2395   */\n      0xa0\n        /* \"#utility.yul\":2380:2389   */\n      dup7\n        /* \"#utility.yul\":2371:2378   */\n      dup9\n        /* \"#utility.yul\":2367:2390   */\n      sub\n        /* \"#utility.yul\":2363:2396   */\n      slt\n        /* \"#utility.yul\":2360:2480   */\n      iszero\n      tag_72\n      jumpi\n        /* \"#utility.yul\":2399:2478   */\n      tag_73\n      tag_28\n      jump\t// in\n    tag_73:\n        /* \"#utility.yul\":2360:2480   */\n    tag_72:\n        /* \"#utility.yul\":2519:2520   */\n      0x00\n        /* \"#utility.yul\":2544:2607   */\n      tag_74\n        /* \"#utility.yul\":2599:2606   */\n      dup9\n        /* \"#utility.yul\":2590:2596   */\n      dup3\n        /* \"#utility.yul\":2579:2588   */\n      dup10\n        /* \"#utility.yul\":2575:2597   */\n      add\n        /* \"#utility.yul\":2544:2607   */\n      tag_32\n      jump\t// in\n    tag_74:\n        /* \"#utility.yul\":2534:2607   */\n      swap6\n      pop\n        /* \"#utility.yul\":2490:2617   */\n      pop\n        /* \"#utility.yul\":2656:2658   */\n      0x20\n        /* \"#utility.yul\":2682:2745   */\n      tag_75\n        /* \"#utility.yul\":2737:2744   */\n      dup9\n        /* \"#utility.yul\":2728:2734   */\n      dup3\n        /* \"#utility.yul\":2717:2726   */\n      dup10\n        /* \"#utility.yul\":2713:2735   */\n      add\n        /* \"#utility.yul\":2682:2745   */\n      tag_34\n      jump\t// in\n    tag_75:\n        /* \"#utility.yul\":2672:2745   */\n      swap5\n      pop\n        /* \"#utility.yul\":2627:2755   */\n      pop\n        /* \"#utility.yul\":2794:2796   */\n      0x40\n        /* \"#utility.yul\":2820:2884   */\n      tag_76\n        /* \"#utility.yul\":2876:2883   */\n      dup9\n        /* \"#utility.yul\":2867:2873   */\n      dup3\n        /* \"#utility.yul\":2856:2865   */\n      dup10\n        /* \"#utility.yul\":2852:2874   */\n      add\n        /* \"#utility.yul\":2820:2884   */\n      tag_37\n      jump\t// in\n    tag_76:\n        /* \"#utility.yul\":2810:2884   */\n      swap4\n      pop\n        /* \"#utility.yul\":2765:2894   */\n      pop\n        /* \"#utility.yul\":2933:2935   */\n      0x60\n        /* \"#utility.yul\":2959:3023   */\n      tag_77\n        /* \"#utility.yul\":3015:3022   */\n      dup9\n        /* \"#utility.yul\":3006:3012   */\n      dup3\n        /* \"#utility.yul\":2995:3004   */\n      dup10\n        /* \"#utility.yul\":2991:3013   */\n      add\n        /* \"#utility.yul\":2959:3023   */\n      tag_37\n      jump\t// in\n    tag_77:\n        /* \"#utility.yul\":2949:3023   */\n      swap3\n      pop\n        /* \"#utility.yul\":2904:3033   */\n      pop\n        /* \"#utility.yul\":3072:3075   */\n      0x80\n        /* \"#utility.yul\":3099:3162   */\n      tag_78\n        /* \"#utility.yul\":3154:3161   */\n      dup9\n        /* \"#utility.yul\":3145:3151   */\n      dup3\n        /* \"#utility.yul\":3134:3143   */\n      dup10\n        /* \"#utility.yul\":3130:3152   */\n      add\n        /* \"#utility.yul\":3099:3162   */\n      tag_32\n      jump\t// in\n    tag_78:\n        /* \"#utility.yul\":3089:3162   */\n      swap2\n      pop\n        /* \"#utility.yul\":3043:3172   */\n      pop\n        /* \"#utility.yul\":2208:3179   */\n      swap3\n      swap6\n      pop\n      swap3\n      swap6\n      swap1\n      swap4\n      pop\n      jump\t// out\n        /* \"#utility.yul\":3185:3303   */\n    tag_38:\n        /* \"#utility.yul\":3256:3278   */\n      tag_80\n        /* \"#utility.yul\":3272:3277   */\n      dup2\n        /* \"#utility.yul\":3256:3278   */\n      tag_25\n      jump\t// in\n    tag_80:\n        /* \"#utility.yul\":3249:3254   */\n      dup2\n        /* \"#utility.yul\":3246:3279   */\n      eq\n        /* \"#utility.yul\":3236:3297   */\n      tag_81\n      jumpi\n        /* \"#utility.yul\":3293:3294   */\n      0x00\n        /* \"#utility.yul\":3290:3291   */\n      dup1\n        /* \"#utility.yul\":3283:3295   */\n      revert\n        /* \"#utility.yul\":3236:3297   */\n    tag_81:\n        /* \"#utility.yul\":3185:3303   */\n      pop\n      jump\t// out\n        /* \"#utility.yul\":3309:3448   */\n    tag_39:\n        /* \"#utility.yul\":3364:3369   */\n      0x00\n        /* \"#utility.yul\":3395:3401   */\n      dup2\n        /* \"#utility.yul\":3389:3402   */\n      mload\n        /* \"#utility.yul\":3380:3402   */\n      swap1\n      pop\n        /* \"#utility.yul\":3411:3442   */\n      tag_83\n        /* \"#utility.yul\":3436:3441   */\n      dup2\n        /* \"#utility.yul\":3411:3442   */\n      tag_38\n      jump\t// in\n    tag_83:\n        /* \"#utility.yul\":3309:3448   */\n      swap3\n      swap2\n      pop\n      pop\n      jump\t// out\n        /* \"#utility.yul\":3454:3801   */\n    tag_22:\n        /* \"#utility.yul\":3522:3528   */\n      0x00\n        /* \"#utility.yul\":3571:3573   */\n      0x20\n        /* \"#utility.yul\":3559:3568   */\n      dup3\n        /* \"#utility.yul\":3550:3557   */\n      dup5\n        /* \"#utility.yul\":3546:3569   */\n      sub\n        /* \"#utility.yul\":3542:3574   */\n      slt\n        /* \"#utility.yul\":3539:3658   */\n      iszero\n      tag_85\n      jumpi\n        /* \"#utility.yul\":3577:3656   */\n      tag_86\n      tag_28\n      jump\t// in\n    tag_86:\n        /* \"#utility.yul\":3539:3658   */\n    tag_85:\n        /* \"#utility.yul\":3697:3698   */\n      0x00\n        /* \"#utility.yul\":3722:3784   */\n      tag_87\n        /* \"#utility.yul\":3776:3783   */\n      dup5\n        /* \"#utility.yul\":3767:3773   */\n      dup3\n        /* \"#utility.yul\":3756:3765   */\n      dup6\n        /* \"#utility.yul\":3752:3774   */\n      add\n        /* \"#utility.yul\":3722:3784   */\n      tag_39\n      jump\t// in\n    tag_87:\n        /* \"#utility.yul\":3712:3784   */\n      swap2\n      pop\n        /* \"#utility.yul\":3668:3794   */\n      pop\n        /* \"#utility.yul\":3454:3801   */\n      swap3\n      swap2\n      pop\n      pop\n      jump\t// out\n\n    auxdata: 0xa2646970667358221220aa56812b2a8cbc92042eaf2154ee9f51545d7306bae4fea4726e7c8793d0acb564736f6c63430008120033\n}\n",
				"bytecode": {
					"linkReferences": {},
					"object": "608060405234801561001057600080fd5b5073694aa1769357215de4fac081bf1f309adc3253066000806101000a81548173ffffffffffffffffffffffffffffffffffffffff021916908373ffffffffffffffffffffffffffffffffffffffff1602179055506103dd806100746000396000f3fe608060405234801561001057600080fd5b50600436106100365760003560e01c80638e15f4731461003b578063f0141d8414610059575b600080fd5b610043610077565b60405161005091906101d8565b60405180910390f35b610061610124565b60405161006e919061020f565b60405180910390f35b60008060008060008060008054906101000a900473ffffffffffffffffffffffffffffffffffffffff1673ffffffffffffffffffffffffffffffffffffffff1663feaf968c6040518163ffffffff1660e01b815260040160a060405180830381865afa1580156100eb573d6000803e3d6000fd5b505050506040513d601f19601f8201168201806040525081019061010f91906102d3565b94509450945094509450839550505050505090565b60008060008054906101000a900473ffffffffffffffffffffffffffffffffffffffff1673ffffffffffffffffffffffffffffffffffffffff1663313ce5676040518163ffffffff1660e01b8152600401602060405180830381865afa158015610192573d6000803e3d6000fd5b505050506040513d601f19601f820116820180604052508101906101b6919061037a565b90508091505090565b6000819050919050565b6101d2816101bf565b82525050565b60006020820190506101ed60008301846101c9565b92915050565b600060ff82169050919050565b610209816101f3565b82525050565b60006020820190506102246000830184610200565b92915050565b600080fd5b600069ffffffffffffffffffff82169050919050565b61024e8161022f565b811461025957600080fd5b50565b60008151905061026b81610245565b92915050565b61027a816101bf565b811461028557600080fd5b50565b60008151905061029781610271565b92915050565b6000819050919050565b6102b08161029d565b81146102bb57600080fd5b50565b6000815190506102cd816102a7565b92915050565b600080600080600060a086880312156102ef576102ee61022a565b5b60006102fd8882890161025c565b955050602061030e88828901610288565b945050604061031f888289016102be565b9350506060610330888289016102be565b92505060806103418882890161025c565b9150509295509295909350565b610357816101f3565b811461036257600080fd5b50565b6000815190506103748161034e565b92915050565b6000602082840312156103905761038f61022a565b5b600061039e84828501610365565b9150509291505056fea2646970667358221220aa56812b2a8cbc92042eaf2154ee9f51545d7306bae4fea4726e7c8793d0acb564736f6c63430008120033",
					"opcodes": "PUSH1 0x80 PUSH1 0x40 MSTORE CALLVALUE DUP1 ISZERO PUSH2 0x10 JUMPI PUSH1 0x0 DUP1 REVERT JUMPDEST POP PUSH20 0x694AA1769357215DE4FAC081BF1F309ADC325306 PUSH1 0x0 DUP1 PUSH2 0x100 EXP DUP2 SLOAD DUP2 PUSH20 0xFFFFFFFFFFFFFFFFFFFFFFFFFFFFFFFFFFFFFFFF MUL NOT AND SWAP1 DUP4 PUSH20 0xFFFFFFFFFFFFFFFFFFFFFFFFFFFFFFFFFFFFFFFF AND MUL OR SWAP1 SSTORE POP PUSH2 0x3DD DUP1 PUSH2 0x74 PUSH1 0x0 CODECOPY PUSH1 0x0 RETURN INVALID PUSH1 0x80 PUSH1 0x40 MSTORE CALLVALUE DUP1 ISZERO PUSH2 0x10 JUMPI PUSH1 0x0 DUP1 REVERT JUMPDEST POP PUSH1 0x4 CALLDATASIZE LT PUSH2 0x36 JUMPI PUSH1 0x0 CALLDATALOAD PUSH1 0xE0 SHR DUP1 PUSH4 0x8E15F473 EQ PUSH2 0x3B JUMPI DUP1 PUSH4 0xF0141D84 EQ PUSH2 0x59 JUMPI JUMPDEST PUSH1 0x0 DUP1 REVERT JUMPDEST PUSH2 0x43 PUSH2 0x77 JUMP JUMPDEST PUSH1 0x40 MLOAD PUSH2 0x50 SWAP2 SWAP1 PUSH2 0x1D8 JUMP JUMPDEST PUSH1 0x40 MLOAD DUP1 SWAP2 SUB SWAP1 RETURN JUMPDEST PUSH2 0x61 PUSH2 0x124 JUMP JUMPDEST PUSH1 0x40 MLOAD PUSH2 0x6E SWAP2 SWAP1 PUSH2 0x20F JUMP JUMPDEST PUSH1 0x40 MLOAD DUP1 SWAP2 SUB SWAP1 RETURN JUMPDEST PUSH1 0x0 DUP1 PUSH1 0x0 DUP1 PUSH1 0x0 DUP1 PUSH1 0x0 DUP1 SLOAD SWAP1 PUSH2 0x100 EXP SWAP1 DIV PUSH20 0xFFFFFFFFFFFFFFFFFFFFFFFFFFFFFFFFFFFFFFFF AND PUSH20 0xFFFFFFFFFFFFFFFFFFFFFFFFFFFFFFFFFFFFFFFF AND PUSH4 0xFEAF968C PUSH1 0x40 MLOAD DUP2 PUSH4 0xFFFFFFFF AND PUSH1 0xE0 SHL DUP2 MSTORE PUSH1 0x4 ADD PUSH1 0xA0 PUSH1 0x40 MLOAD DUP1 DUP4 SUB DUP2 DUP7 GAS STATICCALL ISZERO DUP1 ISZERO PUSH2 0xEB JUMPI RETURNDATASIZE PUSH1 0x0 DUP1 RETURNDATACOPY RETURNDATASIZE PUSH1 0x0 REVERT JUMPDEST POP POP POP POP PUSH1 0x40 MLOAD RETURNDATASIZE PUSH1 0x1F NOT PUSH1 0x1F DUP3 ADD AND DUP3 ADD DUP1 PUSH1 0x40 MSTORE POP DUP2 ADD SWAP1 PUSH2 0x10F SWAP2 SWAP1 PUSH2 0x2D3 JUMP JUMPDEST SWAP5 POP SWAP5 POP SWAP5 POP SWAP5 POP SWAP5 POP DUP4 SWAP6 POP POP POP POP POP POP SWAP1 JUMP JUMPDEST PUSH1 0x0 DUP1 PUSH1 0x0 DUP1 SLOAD SWAP1 PUSH2 0x100 EXP SWAP1 DIV PUSH20 0xFFFFFFFFFFFFFFFFFFFFFFFFFFFFFFFFFFFFFFFF AND PUSH20 0xFFFFFFFFFFFFFFFFFFFFFFFFFFFFFFFFFFFFFFFF AND PUSH4 0x313CE567 PUSH1 0x40 MLOAD DUP2 PUSH4 0xFFFFFFFF AND PUSH1 0xE0 SHL DUP2 MSTORE PUSH1 0x4 ADD PUSH1 0x20 PUSH1 0x40 MLOAD DUP1 DUP4 SUB DUP2 DUP7 GAS STATICCALL ISZERO DUP1 ISZERO PUSH2 0x192 JUMPI RETURNDATASIZE PUSH1 0x0 DUP1 RETURNDATACOPY RETURNDATASIZE PUSH1 0x0 REVERT JUMPDEST POP POP POP POP PUSH1 0x40 MLOAD RETURNDATASIZE PUSH1 0x1F NOT PUSH1 0x1F DUP3 ADD AND DUP3 ADD DUP1 PUSH1 0x40 MSTORE POP DUP2 ADD SWAP1 PUSH2 0x1B6 SWAP2 SWAP1 PUSH2 0x37A JUMP JUMPDEST SWAP1 POP DUP1 SWAP2 POP POP SWAP1 JUMP JUMPDEST PUSH1 0x0 DUP2 SWAP1 POP SWAP2 SWAP1 POP JUMP JUMPDEST PUSH2 0x1D2 DUP2 PUSH2 0x1BF JUMP JUMPDEST DUP3 MSTORE POP POP JUMP JUMPDEST PUSH1 0x0 PUSH1 0x20 DUP3 ADD SWAP1 POP PUSH2 0x1ED PUSH1 0x0 DUP4 ADD DUP5 PUSH2 0x1C9 JUMP JUMPDEST SWAP3 SWAP2 POP POP JUMP JUMPDEST PUSH1 0x0 PUSH1 0xFF DUP3 AND SWAP1 POP SWAP2 SWAP1 POP JUMP JUMPDEST PUSH2 0x209 DUP2 PUSH2 0x1F3 JUMP JUMPDEST DUP3 MSTORE POP POP JUMP JUMPDEST PUSH1 0x0 PUSH1 0x20 DUP3 ADD SWAP1 POP PUSH2 0x224 PUSH1 0x0 DUP4 ADD DUP5 PUSH2 0x200 JUMP JUMPDEST SWAP3 SWAP2 POP POP JUMP JUMPDEST PUSH1 0x0 DUP1 REVERT JUMPDEST PUSH1 0x0 PUSH10 0xFFFFFFFFFFFFFFFFFFFF DUP3 AND SWAP1 POP SWAP2 SWAP1 POP JUMP JUMPDEST PUSH2 0x24E DUP2 PUSH2 0x22F JUMP JUMPDEST DUP2 EQ PUSH2 0x259 JUMPI PUSH1 0x0 DUP1 REVERT JUMPDEST POP JUMP JUMPDEST PUSH1 0x0 DUP2 MLOAD SWAP1 POP PUSH2 0x26B DUP2 PUSH2 0x245 JUMP JUMPDEST SWAP3 SWAP2 POP POP JUMP JUMPDEST PUSH2 0x27A DUP2 PUSH2 0x1BF JUMP JUMPDEST DUP2 EQ PUSH2 0x285 JUMPI PUSH1 0x0 DUP1 REVERT JUMPDEST POP JUMP JUMPDEST PUSH1 0x0 DUP2 MLOAD SWAP1 POP PUSH2 0x297 DUP2 PUSH2 0x271 JUMP JUMPDEST SWAP3 SWAP2 POP POP JUMP JUMPDEST PUSH1 0x0 DUP2 SWAP1 POP SWAP2 SWAP1 POP JUMP JUMPDEST PUSH2 0x2B0 DUP2 PUSH2 0x29D JUMP JUMPDEST DUP2 EQ PUSH2 0x2BB JUMPI PUSH1 0x0 DUP1 REVERT JUMPDEST POP JUMP JUMPDEST PUSH1 0x0 DUP2 MLOAD SWAP1 POP PUSH2 0x2CD DUP2 PUSH2 0x2A7 JUMP JUMPDEST SWAP3 SWAP2 POP POP JUMP JUMPDEST PUSH1 0x0 DUP1 PUSH1 0x0 DUP1 PUSH1 0x0 PUSH1 0xA0 DUP7 DUP9 SUB SLT ISZERO PUSH2 0x2EF JUMPI PUSH2 0x2EE PUSH2 0x22A JUMP JUMPDEST JUMPDEST PUSH1 0x0 PUSH2 0x2FD DUP9 DUP3 DUP10 ADD PUSH2 0x25C JUMP JUMPDEST SWAP6 POP POP PUSH1 0x20 PUSH2 0x30E DUP9 DUP3 DUP10 ADD PUSH2 0x288 JUMP JUMPDEST SWAP5 POP POP PUSH1 0x40 PUSH2 0x31F DUP9 DUP3 DUP10 ADD PUSH2 0x2BE JUMP JUMPDEST SWAP4 POP POP PUSH1 0x60 PUSH2 0x330 DUP9 DUP3 DUP10 ADD PUSH2 0x2BE JUMP JUMPDEST SWAP3 POP POP PUSH1 0x80 PUSH2 0x341 DUP9 DUP3 DUP10 ADD PUSH2 0x25C JUMP JUMPDEST SWAP2 POP POP SWAP3 SWAP6 POP SWAP3 SWAP6 SWAP1 SWAP4 POP JUMP JUMPDEST PUSH2 0x357 DUP2 PUSH2 0x1F3 JUMP JUMPDEST DUP2 EQ PUSH2 0x362 JUMPI PUSH1 0x0 DUP1 REVERT JUMPDEST POP JUMP JUMPDEST PUSH1 0x0 DUP2 MLOAD SWAP1 POP PUSH2 0x374 DUP2 PUSH2 0x34E JUMP JUMPDEST SWAP3 SWAP2 POP POP JUMP JUMPDEST PUSH1 0x0 PUSH1 0x20 DUP3 DUP5 SUB SLT ISZERO PUSH2 0x390 JUMPI PUSH2 0x38F PUSH2 0x22A JUMP JUMPDEST JUMPDEST PUSH1 0x0 PUSH2 0x39E DUP5 DUP3 DUP6 ADD PUSH2 0x365 JUMP JUMPDEST SWAP2 POP POP SWAP3 SWAP2 POP POP JUMP INVALID LOG2 PUSH5 0x6970667358 0x22 SLT KECCAK256 0xAA JUMP DUP2 0x2B 0x2A DUP13 0xBC SWAP3 DIV 0x2E 0xAF 0x21 SLOAD 0xEE SWAP16 MLOAD SLOAD 0x5D PUSH20 0x6BAE4FEA4726E7C8793D0ACB564736F6C634300 ADDMOD SLT STOP CALLER "
				},
				"gasEstimates": {
					"creation": {
						"codeDepositCost": "197800",
						"executionCost": "24505",
						"totalCost": "222305"
					},
					"external": {
						"getDecimals()": "infinite",
						"getLatestPrice()": "infinite"
					}
				},
				"methodIdentifiers": {
					"getDecimals()": "f0141d84",
					"getLatestPrice()": "8e15f473"
				}
			},
			"storageLayout": {
				"storage": [
					{
						"astId": 51,
						"contract": "contracts/PriceConsumerV3.sol:PriceConsumerV3",
						"label": "priceFeed",
						"offset": 0,
						"slot": "0",
						"type": "t_contract(AggregatorV3Interface)45"
					}
				],
				"types": {
					"t_contract(AggregatorV3Interface)45": {
						"encoding": "inplace",
						"label": "contract AggregatorV3Interface",
						"numberOfBytes": "20"
					}
				}
			},
			"userdoc": {
				"kind": "user",
				"methods": {
					"constructor": {
						"notice": "Network: Sepolia Data Feed: ETH/USD Address: 0x694AA1769357215DE4FAC081bf1f309aDC325306"
					}
				},
				"version": 1
			}
		}
	}
}